{
  "contractName": "Election",
  "abi": [
    {
      "constant": true,
      "inputs": [
        {
          "name": "",
          "type": "bytes32"
        }
      ],
      "name": "hasVoted",
      "outputs": [
        {
          "name": "",
          "type": "bool"
        }
      ],
      "payable": false,
      "stateMutability": "view",
      "type": "function"
    },
    {
      "constant": true,
      "inputs": [],
      "name": "endTime",
      "outputs": [
        {
          "name": "",
          "type": "uint256"
        }
      ],
      "payable": false,
      "stateMutability": "view",
      "type": "function"
    },
    {
      "constant": true,
      "inputs": [],
      "name": "voterCount",
      "outputs": [
        {
          "name": "",
          "type": "uint256"
        }
      ],
      "payable": false,
      "stateMutability": "view",
      "type": "function"
    },
    {
      "constant": true,
      "inputs": [],
      "name": "vaultSealed",
      "outputs": [
        {
          "name": "",
          "type": "bool"
        }
      ],
      "payable": false,
      "stateMutability": "view",
      "type": "function"
    },
    {
      "constant": true,
      "inputs": [
        {
          "name": "",
          "type": "uint256"
        }
      ],
      "name": "parties",
      "outputs": [
        {
          "name": "",
          "type": "string"
        }
      ],
      "payable": false,
      "stateMutability": "view",
      "type": "function"
    },
    {
      "constant": true,
      "inputs": [],
      "name": "beginTime",
      "outputs": [
        {
          "name": "",
          "type": "uint256"
        }
      ],
      "payable": false,
      "stateMutability": "view",
      "type": "function"
    },
    {
      "constant": true,
      "inputs": [
        {
          "name": "",
          "type": "uint256"
        }
      ],
      "name": "constituencies",
      "outputs": [
        {
          "name": "",
          "type": "string"
        }
      ],
      "payable": false,
      "stateMutability": "view",
      "type": "function"
    },
    {
      "constant": true,
      "inputs": [
        {
          "name": "",
          "type": "address"
        }
      ],
      "name": "ec_officials",
      "outputs": [
        {
          "name": "",
          "type": "bool"
        }
      ],
      "payable": false,
      "stateMutability": "view",
      "type": "function"
    },
    {
      "constant": true,
      "inputs": [
        {
          "name": "",
          "type": "address"
        }
      ],
      "name": "kyc_verifiers",
      "outputs": [
        {
          "name": "",
          "type": "bool"
        }
      ],
      "payable": false,
      "stateMutability": "view",
      "type": "function"
    },
    {
      "constant": true,
      "inputs": [],
      "name": "EC_Head",
      "outputs": [
        {
          "name": "",
          "type": "address"
        }
      ],
      "payable": false,
      "stateMutability": "view",
      "type": "function"
    },
    {
      "constant": true,
      "inputs": [
        {
          "name": "",
          "type": "bytes32"
        }
      ],
      "name": "kycDone",
      "outputs": [
        {
          "name": "",
          "type": "bool"
        }
      ],
      "payable": false,
      "stateMutability": "view",
      "type": "function"
    },
    {
      "constant": true,
      "inputs": [],
      "name": "isVaultOpened",
      "outputs": [
        {
          "name": "",
          "type": "bool"
        }
      ],
      "payable": false,
      "stateMutability": "view",
      "type": "function"
    },
    {
      "inputs": [],
      "payable": false,
      "stateMutability": "nonpayable",
      "type": "constructor"
    },
    {
      "constant": false,
      "inputs": [
        {
          "name": "official",
          "type": "address"
        }
      ],
      "name": "addEcOfficial",
      "outputs": [],
      "payable": false,
      "stateMutability": "nonpayable",
      "type": "function"
    },
    {
      "constant": false,
      "inputs": [
        {
          "name": "official",
          "type": "address"
        }
      ],
      "name": "removeEcOfficial",
      "outputs": [],
      "payable": false,
      "stateMutability": "nonpayable",
      "type": "function"
    },
    {
      "constant": false,
      "inputs": [
        {
          "name": "verifier",
          "type": "address"
        }
      ],
      "name": "addKycVerifier",
      "outputs": [],
      "payable": false,
      "stateMutability": "nonpayable",
      "type": "function"
    },
    {
      "constant": false,
      "inputs": [
        {
          "name": "verifier",
          "type": "address"
        }
      ],
      "name": "removeKycVerifier",
      "outputs": [],
      "payable": false,
      "stateMutability": "nonpayable",
      "type": "function"
    },
    {
      "constant": false,
      "inputs": [
        {
          "name": "party_name",
          "type": "string"
        }
      ],
      "name": "addParty",
      "outputs": [],
      "payable": false,
      "stateMutability": "nonpayable",
      "type": "function"
    },
    {
      "constant": false,
      "inputs": [
        {
          "name": "constituency",
          "type": "string"
        }
      ],
      "name": "addConstituency",
      "outputs": [],
      "payable": false,
      "stateMutability": "nonpayable",
      "type": "function"
    },
    {
      "constant": false,
      "inputs": [
        {
          "name": "uuid_hash",
          "type": "bytes32"
        }
      ],
      "name": "kycVerify",
      "outputs": [],
      "payable": false,
      "stateMutability": "nonpayable",
      "type": "function"
    },
    {
      "constant": false,
      "inputs": [
        {
          "name": "_startTime",
          "type": "uint256"
        },
        {
          "name": "_closureTime",
          "type": "uint256"
        }
      ],
      "name": "openVault",
      "outputs": [],
      "payable": false,
      "stateMutability": "nonpayable",
      "type": "function"
    },
    {
      "constant": false,
      "inputs": [],
      "name": "closeVault",
      "outputs": [],
      "payable": false,
      "stateMutability": "nonpayable",
      "type": "function"
    },
    {
      "constant": false,
      "inputs": [],
      "name": "sealVault",
      "outputs": [],
      "payable": false,
      "stateMutability": "nonpayable",
      "type": "function"
    },
    {
      "constant": false,
      "inputs": [
        {
          "name": "uuid_hash",
          "type": "bytes32"
        },
        {
          "name": "constituency",
          "type": "string"
        },
        {
          "name": "party",
          "type": "string"
        },
        {
          "name": "vote_hash",
          "type": "bytes32"
        }
      ],
      "name": "registerVote",
      "outputs": [],
      "payable": false,
      "stateMutability": "nonpayable",
      "type": "function"
    },
    {
      "constant": false,
      "inputs": [],
      "name": "calculateVotes",
      "outputs": [
        {
          "name": "",
          "type": "bool"
        }
      ],
      "payable": false,
      "stateMutability": "nonpayable",
      "type": "function"
    },
    {
      "constant": true,
      "inputs": [
        {
          "name": "constituency",
          "type": "string"
        }
      ],
      "name": "getWinner",
      "outputs": [
        {
          "name": "",
          "type": "string"
        }
      ],
      "payable": false,
      "stateMutability": "view",
      "type": "function"
    },
    {
      "constant": true,
      "inputs": [
        {
          "name": "constituency",
          "type": "string"
        },
        {
          "name": "party",
          "type": "string"
        }
      ],
      "name": "getVoteHashes",
      "outputs": [
        {
          "name": "",
          "type": "bytes32[]"
        }
      ],
      "payable": false,
      "stateMutability": "view",
      "type": "function"
    },
    {
      "constant": true,
      "inputs": [
        {
          "name": "constituency",
          "type": "string"
        },
        {
          "name": "party",
          "type": "string"
        }
      ],
      "name": "getVoteCount",
      "outputs": [
        {
          "name": "",
          "type": "uint256"
        }
      ],
      "payable": false,
      "stateMutability": "view",
      "type": "function"
    }
  ],
  "bytecode": "0x608060405234801561001057600080fd5b50336000806101000a81548173ffffffffffffffffffffffffffffffffffffffff021916908373ffffffffffffffffffffffffffffffffffffffff1602179055506001600260003373ffffffffffffffffffffffffffffffffffffffff1673ffffffffffffffffffffffffffffffffffffffff16815260200190815260200160002060006101000a81548160ff02191690831515021790555060018060003373ffffffffffffffffffffffffffffffffffffffff1673ffffffffffffffffffffffffffffffffffffffff16815260200190815260200160002060006101000a81548160ff02191690831515021790555060006007819055506000600d60006101000a81548160ff0219169083151502179055506000600d60016101000a81548160ff0219169083151502179055506121a98061014d6000396000f3fe608060405234801561001057600080fd5b50600436106101a95760003560e01c806370651a18116100f9578063e8b2f84b11610097578063f2ba18ed11610071578063f2ba18ed146104de578063f7c89378146104fc578063fb67e47514610506578063fc13c2a914610524576101a9565b8063e8b2f84b14610474578063e9c8767b14610490578063ecf07ceb146104ae576101a9565b8063ab38b219116100d3578063ab38b219146103c8578063c8695cb1146103e4578063df56ce5614610414578063e7e0fff814610444576101a9565b806370651a181461034a57806388149fb91461037a5780639209416a14610398576101a9565b80633197cbb61161016657806359cb83d01161014057806359cb83d0146102c45780635b80df90146102e05780635df3e27114610310578063662649051461032c576101a9565b80633197cbb61461026c57806342169e481461028a57806350f10b1f146102a8576101a9565b806305a395a5146101ae5780631694fa7d146101ca578063183f507a146101fa57806318976fa2146102165780631b4613cb146102205780631e8e8d9e14610250575b600080fd5b6101c860048036036101c39190810190611a46565b610540565b005b6101e460048036036101df9190810190611a87565b61060e565b6040516101f19190611f97565b60405180910390f35b610214600480360361020f919081019061198a565b610653565b005b61021e61070e565b005b61023a6004803603610235919081019061198a565b6107f4565b6040516102479190611ed8565b60405180910390f35b61026a60048036036102659190810190611961565b610814565b005b61027461094a565b6040516102819190611f97565b60405180910390f35b610292610950565b60405161029f9190611f97565b60405180910390f35b6102c260048036036102bd91908101906119b3565b610956565b005b6102de60048036036102d99190810190611b1c565b610abf565b005b6102fa60048036036102f59190810190611a46565b610bd6565b6040516103079190611f15565b60405180910390f35b61032a60048036036103259190810190611a46565b610c96565b005b610334610d64565b6040516103419190611ed8565b60405180910390f35b610364600480360361035f9190810190611af3565b610d77565b6040516103719190611ef3565b60405180910390f35b610382610e30565b60405161038f9190611f97565b60405180910390f35b6103b260048036036103ad9190810190611af3565b610e36565b6040516103bf9190611ef3565b60405180910390f35b6103e260048036036103dd9190810190611961565b610eef565b005b6103fe60048036036103f99190810190611961565b611028565b60405161040b9190611ed8565b60405180910390f35b61042e60048036036104299190810190611a87565b611048565b60405161043b9190611eb6565b60405180910390f35b61045e60048036036104599190810190611961565b6110db565b60405161046b9190611ed8565b60405180910390f35b61048e60048036036104899190810190611961565b6110fb565b005b6104986111e5565b6040516104a59190611e9b565b60405180910390f35b6104c860048036036104c3919081019061198a565b61120a565b6040516104d59190611ed8565b60405180910390f35b6104e661122a565b6040516104f39190611ed8565b60405180910390f35b610504611648565b005b61050e611730565b60405161051b9190611ed8565b60405180910390f35b61053e60048036036105399190810190611961565b611743565b005b600260003373ffffffffffffffffffffffffffffffffffffffff1673ffffffffffffffffffffffffffffffffffffffff16815260200190815260200160002060009054906101000a900460ff166105cc576040517f08c379a00000000000000000000000000000000000000000000000000000000081526004016105c390611f57565b60405180910390fd5b6003819080600181540180825580915050906001820390600052602060002001600090919290919091509080519060200190610609929190611829565b505050565b60006009836040516106209190611e6d565b90815260200160405180910390208260405161063c9190611e6d565b908152602001604051809103902054905092915050565b600160003373ffffffffffffffffffffffffffffffffffffffff1673ffffffffffffffffffffffffffffffffffffffff16815260200190815260200160002060009054906101000a900460ff166106df576040517f08c379a00000000000000000000000000000000000000000000000000000000081526004016106d690611f57565b60405180910390fd5b60016006600083815260200190815260200160002060006101000a81548160ff02191690831515021790555050565b6000809054906101000a900473ffffffffffffffffffffffffffffffffffffffff1673ffffffffffffffffffffffffffffffffffffffff163373ffffffffffffffffffffffffffffffffffffffff161461079d576040517f08c379a000000000000000000000000000000000000000000000000000000000815260040161079490611f57565b60405180910390fd5b600d60009054906101000a900460ff16156107b757600080fd5b600d60019054906101000a900460ff166107d057600080fd5b42600c819055506000600d60016101000a81548160ff021916908315150217905550565b60056020528060005260406000206000915054906101000a900460ff1681565b600260003373ffffffffffffffffffffffffffffffffffffffff1673ffffffffffffffffffffffffffffffffffffffff16815260200190815260200160002060009054906101000a900460ff166108a0576040517f08c379a000000000000000000000000000000000000000000000000000000000815260040161089790611f57565b60405180910390fd5b6000600160008373ffffffffffffffffffffffffffffffffffffffff1673ffffffffffffffffffffffffffffffffffffffff16815260200190815260200160002060006101000a81548160ff021916908315150217905550600160008273ffffffffffffffffffffffffffffffffffffffff1673ffffffffffffffffffffffffffffffffffffffff16815260200190815260200160002060006101000a81549060ff021916905550565b600c5481565b60075481565b6006600085815260200190815260200160002060009054906101000a900460ff166109b6576040517f08c379a00000000000000000000000000000000000000000000000000000000081526004016109ad90611f77565b60405180910390fd5b6005600085815260200190815260200160002060009054906101000a900460ff1615610a17576040517f08c379a0000000000000000000000000000000000000000000000000000000008152600401610a0e90611f37565b60405180910390fd5b600883604051610a279190611e6d565b908152602001604051809103902082604051610a439190611e6d565b908152602001604051809103902081908060018154018082558091505090600182039060005260206000200160009091929091909150555060076000815480929190600101919050555060016005600086815260200190815260200160002060006101000a81548160ff02191690831515021790555050505050565b6000809054906101000a900473ffffffffffffffffffffffffffffffffffffffff1673ffffffffffffffffffffffffffffffffffffffff163373ffffffffffffffffffffffffffffffffffffffff1614610b4e576040517f08c379a0000000000000000000000000000000000000000000000000000000008152600401610b4590611f57565b60405180910390fd5b600d60009054906101000a900460ff1615610b6857600080fd5b600d60019054906101000a900460ff1615610b8257600080fd5b42821015610b8f57600080fd5b42811015610b9c57600080fd5b81811015610ba957600080fd5b81600b8190555080600c819055506001600d60016101000a81548160ff0219169083151502179055505050565b6060600a82604051610be89190611e6d565b90815260200160405180910390208054600181600116156101000203166002900480601f016020809104026020016040519081016040528092919081815260200182805460018160011615610100020316600290048015610c8a5780601f10610c5f57610100808354040283529160200191610c8a565b820191906000526020600020905b815481529060010190602001808311610c6d57829003601f168201915b50505050509050919050565b600260003373ffffffffffffffffffffffffffffffffffffffff1673ffffffffffffffffffffffffffffffffffffffff16815260200190815260200160002060009054906101000a900460ff16610d22576040517f08c379a0000000000000000000000000000000000000000000000000000000008152600401610d1990611f57565b60405180910390fd5b6004819080600181540180825580915050906001820390600052602060002001600090919290919091509080519060200190610d5f929190611829565b505050565b600d60009054906101000a900460ff1681565b60048181548110610d8457fe5b906000526020600020016000915090508054600181600116156101000203166002900480601f016020809104026020016040519081016040528092919081815260200182805460018160011615610100020316600290048015610e285780601f10610dfd57610100808354040283529160200191610e28565b820191906000526020600020905b815481529060010190602001808311610e0b57829003601f168201915b505050505081565b600b5481565b60038181548110610e4357fe5b906000526020600020016000915090508054600181600116156101000203166002900480601f016020809104026020016040519081016040528092919081815260200182805460018160011615610100020316600290048015610ee75780601f10610ebc57610100808354040283529160200191610ee7565b820191906000526020600020905b815481529060010190602001808311610eca57829003601f168201915b505050505081565b6000809054906101000a900473ffffffffffffffffffffffffffffffffffffffff1673ffffffffffffffffffffffffffffffffffffffff163373ffffffffffffffffffffffffffffffffffffffff1614610f7e576040517f08c379a0000000000000000000000000000000000000000000000000000000008152600401610f7590611f57565b60405180910390fd5b6000600260008373ffffffffffffffffffffffffffffffffffffffff1673ffffffffffffffffffffffffffffffffffffffff16815260200190815260200160002060006101000a81548160ff021916908315150217905550600260008273ffffffffffffffffffffffffffffffffffffffff1673ffffffffffffffffffffffffffffffffffffffff16815260200190815260200160002060006101000a81549060ff021916905550565b60026020528060005260406000206000915054906101000a900460ff1681565b606060088360405161105a9190611e6d565b9081526020016040518091039020826040516110769190611e6d565b90815260200160405180910390208054806020026020016040519081016040528092919081815260200182805480156110ce57602002820191906000526020600020905b8154815260200190600101908083116110ba575b5050505050905092915050565b60016020528060005260406000206000915054906101000a900460ff1681565b6000809054906101000a900473ffffffffffffffffffffffffffffffffffffffff1673ffffffffffffffffffffffffffffffffffffffff163373ffffffffffffffffffffffffffffffffffffffff161461118a576040517f08c379a000000000000000000000000000000000000000000000000000000000815260040161118190611f57565b60405180910390fd5b6001600260008373ffffffffffffffffffffffffffffffffffffffff1673ffffffffffffffffffffffffffffffffffffffff16815260200190815260200160002060006101000a81548160ff02191690831515021790555050565b6000809054906101000a900473ffffffffffffffffffffffffffffffffffffffff1681565b60066020528060005260406000206000915054906101000a900460ff1681565b60008060009054906101000a900473ffffffffffffffffffffffffffffffffffffffff1673ffffffffffffffffffffffffffffffffffffffff163373ffffffffffffffffffffffffffffffffffffffff16146112bb576040517f08c379a00000000000000000000000000000000000000000000000000000000081526004016112b290611f57565b60405180910390fd5b606060008090505b60038054905081101561163f5760046000815481106112de57fe5b906000526020600020018054600181600116156101000203166002900480601f01602080910402602001604051908101604052809291908181526020018280546001816001161561010002031660029004801561137c5780601f106113515761010080835404028352916020019161137c565b820191906000526020600020905b81548152906001019060200180831161135f57829003601f168201915b5050505050915060008090505b6004805490508110156115e8576008600383815481106113a557fe5b906000526020600020016040516113bc9190611e84565b9081526020016040518091039020600482815481106113d757fe5b906000526020600020016040516113ee9190611e84565b90815260200160405180910390208054905060096003848154811061140f57fe5b906000526020600020016040516114269190611e84565b90815260200160405180910390206004838154811061144157fe5b906000526020600020016040516114589190611e84565b90815260200160405180910390208190555060096003838154811061147957fe5b906000526020600020016040516114909190611e84565b9081526020016040518091039020836040516114ac9190611e6d565b9081526020016040518091039020546009600384815481106114ca57fe5b906000526020600020016040516114e19190611e84565b9081526020016040518091039020600483815481106114fc57fe5b906000526020600020016040516115139190611e84565b90815260200160405180910390205411156115db576004818154811061153557fe5b906000526020600020018054600181600116156101000203166002900480601f0160208091040260200160405190810160405280929190818152602001828054600181600116156101000203166002900480156115d35780601f106115a8576101008083540402835291602001916115d3565b820191906000526020600020905b8154815290600101906020018083116115b657829003601f168201915b505050505092505b8080600101915050611389565b5081600a600383815481106115f957fe5b906000526020600020016040516116109190611e84565b90815260200160405180910390209080519060200190611631929190611829565b5080806001019150506112c3565b50600191505090565b6000809054906101000a900473ffffffffffffffffffffffffffffffffffffffff1673ffffffffffffffffffffffffffffffffffffffff163373ffffffffffffffffffffffffffffffffffffffff16146116d7576040517f08c379a00000000000000000000000000000000000000000000000000000000081526004016116ce90611f57565b60405180910390fd5b600d60009054906101000a900460ff16156116f157600080fd5b42600c819055506001600d60006101000a81548160ff0219169083151502179055506000600d60016101000a81548160ff021916908315150217905550565b600d60019054906101000a900460ff1681565b600260003373ffffffffffffffffffffffffffffffffffffffff1673ffffffffffffffffffffffffffffffffffffffff16815260200190815260200160002060009054906101000a900460ff166117cf576040517f08c379a00000000000000000000000000000000000000000000000000000000081526004016117c690611f57565b60405180910390fd5b60018060008373ffffffffffffffffffffffffffffffffffffffff1673ffffffffffffffffffffffffffffffffffffffff16815260200190815260200160002060006101000a81548160ff02191690831515021790555050565b828054600181600116156101000203166002900490600052602060002090601f016020900481019282601f1061186a57805160ff1916838001178555611898565b82800160010185558215611898579182015b8281111561189757825182559160200191906001019061187c565b5b5090506118a591906118a9565b5090565b6118cb91905b808211156118c75760008160009055506001016118af565b5090565b90565b6000813590506118dd8161212a565b92915050565b6000813590506118f281612141565b92915050565b600082601f83011261190957600080fd5b813561191c61191782611fdf565b611fb2565b9150808252602083016020830185838301111561193857600080fd5b6119438382846120d7565b50505092915050565b60008135905061195b81612158565b92915050565b60006020828403121561197357600080fd5b6000611981848285016118ce565b91505092915050565b60006020828403121561199c57600080fd5b60006119aa848285016118e3565b91505092915050565b600080600080608085870312156119c957600080fd5b60006119d7878288016118e3565b945050602085013567ffffffffffffffff8111156119f457600080fd5b611a00878288016118f8565b935050604085013567ffffffffffffffff811115611a1d57600080fd5b611a29878288016118f8565b9250506060611a3a878288016118e3565b91505092959194509250565b600060208284031215611a5857600080fd5b600082013567ffffffffffffffff811115611a7257600080fd5b611a7e848285016118f8565b91505092915050565b60008060408385031215611a9a57600080fd5b600083013567ffffffffffffffff811115611ab457600080fd5b611ac0858286016118f8565b925050602083013567ffffffffffffffff811115611add57600080fd5b611ae9858286016118f8565b9150509250929050565b600060208284031215611b0557600080fd5b6000611b138482850161194c565b91505092915050565b60008060408385031215611b2f57600080fd5b6000611b3d8582860161194c565b9250506020611b4e8582860161194c565b9150509250929050565b6000611b648383611bec565b60208301905092915050565b611b7981612085565b82525050565b6000611b8a8261202a565b611b948185612058565b9350611b9f8361200b565b8060005b83811015611bd0578151611bb78882611b58565b9750611bc28361204b565b925050600181019050611ba3565b5085935050505092915050565b611be681612097565b82525050565b611bf5816120a3565b82525050565b6000611c0682612040565b611c108185612069565b9350611c208185602086016120e6565b611c2981612119565b840191505092915050565b6000611c3f82612040565b611c49818561207a565b9350611c598185602086016120e6565b80840191505092915050565b6000611c7082612035565b611c7a8185612069565b9350611c8a8185602086016120e6565b611c9381612119565b840191505092915050565b600081546001811660008114611cbb5760018114611ce057611d24565b607f6002830416611ccc818761207a565b955060ff1983168652808601935050611d24565b60028204611cee818761207a565b9550611cf985612018565b60005b82811015611d1b57815481890152600182019150602081019050611cfc565b82880195505050505b505092915050565b6000611d39602683612069565b91507f54686520766f7465722068617320616c726561647920766f7465642e2041626f60008301527f7274696e672e00000000000000000000000000000000000000000000000000006020830152604082019050919050565b6000611d9f603283612069565b91507f596f7520617265206e6f7420417574686f72697a656420746f206d616b65207460008301527f6869732066756e6374696f6e2043616c6c2e00000000000000000000000000006020830152604082019050919050565b6000611e05602a83612069565b91507f4b59432070726f63657373206973206e6f7420636f6d706c65746520666f722060008301527f7468697320766f746572000000000000000000000000000000000000000000006020830152604082019050919050565b611e67816120cd565b82525050565b6000611e798284611c34565b915081905092915050565b6000611e908284611c9e565b915081905092915050565b6000602082019050611eb06000830184611b70565b92915050565b60006020820190508181036000830152611ed08184611b7f565b905092915050565b6000602082019050611eed6000830184611bdd565b92915050565b60006020820190508181036000830152611f0d8184611c65565b905092915050565b60006020820190508181036000830152611f2f8184611bfb565b905092915050565b60006020820190508181036000830152611f5081611d2c565b9050919050565b60006020820190508181036000830152611f7081611d92565b9050919050565b60006020820190508181036000830152611f9081611df8565b9050919050565b6000602082019050611fac6000830184611e5e565b92915050565b6000604051905081810181811067ffffffffffffffff82111715611fd557600080fd5b8060405250919050565b600067ffffffffffffffff821115611ff657600080fd5b601f19601f8301169050602081019050919050565b6000602082019050919050565b60008160005260206000209050919050565b600081519050919050565b600081519050919050565b600081519050919050565b6000602082019050919050565b600082825260208201905092915050565b600082825260208201905092915050565b600081905092915050565b6000612090826120ad565b9050919050565b60008115159050919050565b6000819050919050565b600073ffffffffffffffffffffffffffffffffffffffff82169050919050565b6000819050919050565b82818337600083830152505050565b60005b838110156121045780820151818401526020810190506120e9565b83811115612113576000848401525b50505050565b6000601f19601f8301169050919050565b61213381612085565b811461213e57600080fd5b50565b61214a816120a3565b811461215557600080fd5b50565b612161816120cd565b811461216c57600080fd5b5056fea265627a7a72305820ea974e2b2e15fce6b6fad1c454b988999270b77457b916c3d86c1923f473cc6a6c6578706572696d656e74616cf50037",
  "source": "pragma solidity ^0.5.0;\npragma experimental ABIEncoderV2;\n\n// import \"./VoteVault.sol\";\n\ncontract Election {\n \n    address public EC_Head;\n    mapping(address => bool) public kyc_verifiers;\n    mapping(address => bool) public ec_officials;\n\n    // event Approval(address indexed tokenOwner, address indexed spender, uint tokens);\n    // event Transfer(address indexed from, address indexed to, uint tokens);\n\n    string[] public  constituencies;\n    string[] public parties;\n    // mapping(uint8 => string) public partyName;\n    mapping(bytes32 => bool) public hasVoted;\n    mapping(bytes32 => bool) public kycDone;\n    // mapping(uint => bool) public kycDone;\n    uint public voterCount;\n    mapping(string => mapping (string => bytes32[]))  vote_hashes;\n    mapping(string => mapping (string => uint))  result;\n    mapping(string => string)  winner;\n\n    // Vault opens/opened at this time\n    uint256 public beginTime;\n    \n    // Vault closes/Closed at this times\n    uint256 public endTime;\n    \n    // flag to track whether vault closed permanently or not\n    bool public vaultSealed;\n    \n    // Checks whether the vault is opened or not\n    bool public isVaultOpened;\n\n\n    using SafeMath for uint;\n    \n    modifier onlyEcHead {\n        require((msg.sender == EC_Head), \"You are not Authorized to make this function Call.\");\n        _;\n    }\n    modifier onlyEcOfficial {\n        require((ec_officials[msg.sender]), \"You are not Authorized to make this function Call.\");\n        _;\n    }\n    modifier onlyKycVerifier {\n        require((kyc_verifiers[msg.sender]), \"You are not Authorized to make this function Call.\");\n        _;\n    }\n\n   constructor() public {  \n\t\n    EC_Head = msg.sender;\n    ec_officials[msg.sender] = true;\n    // will remove this when actual voting occurs\n    kyc_verifiers[msg.sender] = true;\n    voterCount = 0;\n\n    vaultSealed = false;\n    isVaultOpened = false;\n    }  \n\n    function addEcOfficial (address official) public onlyEcHead {\n        ec_officials[official] = true;\n    }\n    function removeEcOfficial(address official) public onlyEcHead {\n        ec_officials[official] = false;\n        delete ec_officials[official];\n    }\n    function addKycVerifier (address verifier) public onlyEcOfficial {\n        kyc_verifiers[verifier] = true;\n    }\n    function removeKycVerifier(address verifier) public onlyEcOfficial {\n        kyc_verifiers[verifier] = false;\n        delete kyc_verifiers[verifier];\n    }\n    function addParty (string memory party_name) public onlyEcOfficial {\n        // require(!isVaultOpened);\n        // require(beginTime >= uint256(now), \"Cannot add a party after the elections have started.\");\n        parties.push(party_name);\n    }\n    function addConstituency (string memory constituency) public onlyEcOfficial{\n        // require(!isVaultOpened);\n        // require(beginTime >= uint256(now), \"Cannot add a constituency after the elections have started.\");\n        constituencies.push(constituency);\n    }\n\n    function kycVerify(bytes32  uuid_hash) public onlyKycVerifier {\n        kycDone[uuid_hash] = true;\n    }\n\n    function openVault(uint256 _startTime, uint256 _closureTime) public onlyEcHead {\n        require(!vaultSealed);\n        require(!isVaultOpened);\n        require(_startTime >= uint256(now)); \n        require(_closureTime >= uint256(now)); \n        require(_closureTime >= _startTime);    \n        \n        beginTime = _startTime; \n        endTime = _closureTime;\n        isVaultOpened = true; \n    }\n\n    function closeVault() public onlyEcHead {\n        // can use this function to end the voting process immediately in case of some emergency\n        // but this should not be misused by the ec head to stop it anytime and calculate the votes.\n        // can include a multisig over here\n        require(!vaultSealed);\n        require(isVaultOpened); \n        \n        endTime = uint256(now);\n        isVaultOpened = false; \n    }\n\n    function sealVault() public onlyEcHead {\n        require(!vaultSealed); \n        endTime = uint256(now);\n        vaultSealed = true; \n        isVaultOpened = false; \n    }\n\n    function registerVote(bytes32 uuid_hash, string memory constituency, string memory party,  bytes32 vote_hash) public {\n        // require(!vaultSealed);\n        // require(isVaultOpened);\n        // require(beginTime <= uint256(now), \"The elections haven't started yet\"); \n        // require(endTime >= uint256(now), \"The election period is over\");\n        require(kycDone[uuid_hash], \"KYC process is not complete for this voter\");\n        require(!(hasVoted[uuid_hash]), \"The voter has already voted. Aborting.\");\n\n        vote_hashes[constituency][party].push(vote_hash);\n        voterCount++;\n        hasVoted[uuid_hash] = true;\n    }\n\n    function calculateVotes() public  onlyEcHead returns (bool) {\n        // require(endTime <= uint256(now), \"The election period is not over. Can't calculate the votes before election ends.\");\n        string memory _winner;\n\n        for (uint i = 0; i < constituencies.length; i++)\n        {\n            _winner = parties[0];\n            for (uint j = 0; j < parties.length; j++){\n                 result[constituencies[i]][parties[j]] = vote_hashes[constituencies[i]][parties[j]].length;\n                if ( result[constituencies[i]][parties[j]] > result[constituencies[i]][_winner]){\n                    _winner = parties[j];\n                }\n            }\n             winner[constituencies[i]] = _winner;\n        }\n        return true;\n    }\n\n    function getWinner(string memory constituency) public view returns (string memory) {\n        return  winner[constituency];\n    }\n    function getVoteHashes(string memory constituency, string memory party) public view returns (bytes32[] memory) {\n        return  vote_hashes[constituency][party];\n    }\n    function getVoteCount(string memory constituency, string memory party) public view returns (uint) {\n        return  result[constituency][party];\n    }\n}\n\nlibrary SafeMath { \n    function sub(uint256 a, uint256 b) internal pure returns (uint256) {\n      assert(b <= a);\n      return a - b;\n    }\n    \n    function add(uint256 a, uint256 b) internal pure returns (uint256) {\n      uint256 c = a + b;\n      assert(c >= a);\n      return c;\n    }\n\n//     function substring(string str, uint startIndex, uint endIndex) constant returns (string) {\n//     bytes memory strBytes = bytes(str);\n//     bytes memory result = new bytes(endIndex-startIndex);\n//     for(uint i = startIndex; i < endIndex; i++) {\n//         result[i-startIndex] = strBytes[i];\n//     }\n//     return string(result);\n// }\n\n// for removing something from an array. instead of shifting, just replace it with last element and \n// decrease the length by 1\n// for (uint i = 0; i < vaultOwners.length; i++) {\n//             if (vaultOwners[i] == _owner) {\n//                 vaultOwners[i] = vaultOwners[vaultOwners.length - 1];\n//                 vaultOwners.length -= 1;\n//                 break;\n//             }\n//         } \n}\n",
  "sourcePath": "/home/akash/Videos/Excalibur-code-fun-do/blockchain/contracts/Election.sol",
  "compiler": {
    "name": "solc",
    "version": "0.5.8+commit.23d335f2.Emscripten.clang"
  },
  "schemaVersion": "3.0.11",
  "updatedAt": "2019-08-14T19:25:35.576Z",
  "devdoc": {
    "methods": {}
  },
  "userdoc": {
    "methods": {}
  }
}