{
  "contractName": "VoterData",
  "abi": [
    {
      "constant": true,
      "inputs": [
        {
          "name": "",
          "type": "bytes32"
        }
      ],
      "name": "voters",
      "outputs": [
        {
          "name": "Name",
          "type": "string"
        },
        {
          "name": "dob",
          "type": "uint256"
        },
        {
          "name": "voterId",
          "type": "string"
        },
        {
          "name": "verifier",
          "type": "address"
        },
        {
          "name": "age",
          "type": "uint256"
        },
        {
          "name": "verificationTime",
          "type": "uint256"
        }
      ],
      "payable": false,
      "stateMutability": "view",
      "type": "function"
    },
    {
      "constant": true,
      "inputs": [],
      "name": "verified_voter_count",
      "outputs": [
        {
          "name": "",
          "type": "uint256"
        }
      ],
      "payable": false,
      "stateMutability": "view",
      "type": "function"
    },
    {
      "constant": true,
      "inputs": [],
      "name": "dob_now",
      "outputs": [
        {
          "name": "",
          "type": "uint256"
        }
      ],
      "payable": false,
      "stateMutability": "view",
      "type": "function"
    },
    {
      "constant": true,
      "inputs": [],
      "name": "time_now",
      "outputs": [
        {
          "name": "",
          "type": "uint256"
        }
      ],
      "payable": false,
      "stateMutability": "view",
      "type": "function"
    },
    {
      "constant": true,
      "inputs": [],
      "name": "age_now",
      "outputs": [
        {
          "name": "",
          "type": "uint256"
        }
      ],
      "payable": false,
      "stateMutability": "view",
      "type": "function"
    },
    {
      "constant": true,
      "inputs": [
        {
          "name": "",
          "type": "address"
        }
      ],
      "name": "ec_officials",
      "outputs": [
        {
          "name": "",
          "type": "bool"
        }
      ],
      "payable": false,
      "stateMutability": "view",
      "type": "function"
    },
    {
      "constant": true,
      "inputs": [],
      "name": "difference",
      "outputs": [
        {
          "name": "",
          "type": "uint256"
        }
      ],
      "payable": false,
      "stateMutability": "view",
      "type": "function"
    },
    {
      "constant": true,
      "inputs": [
        {
          "name": "",
          "type": "address"
        }
      ],
      "name": "kyc_verifiers",
      "outputs": [
        {
          "name": "",
          "type": "bool"
        }
      ],
      "payable": false,
      "stateMutability": "view",
      "type": "function"
    },
    {
      "constant": true,
      "inputs": [],
      "name": "EC_Head",
      "outputs": [
        {
          "name": "",
          "type": "address"
        }
      ],
      "payable": false,
      "stateMutability": "view",
      "type": "function"
    },
    {
      "inputs": [],
      "payable": false,
      "stateMutability": "nonpayable",
      "type": "constructor"
    },
    {
      "constant": false,
      "inputs": [
        {
          "name": "official",
          "type": "address"
        }
      ],
      "name": "addEcOfficial",
      "outputs": [],
      "payable": false,
      "stateMutability": "nonpayable",
      "type": "function"
    },
    {
      "constant": false,
      "inputs": [
        {
          "name": "official",
          "type": "address"
        }
      ],
      "name": "removeEcOfficial",
      "outputs": [],
      "payable": false,
      "stateMutability": "nonpayable",
      "type": "function"
    },
    {
      "constant": false,
      "inputs": [
        {
          "name": "verifier",
          "type": "address"
        }
      ],
      "name": "addKycVerifier",
      "outputs": [],
      "payable": false,
      "stateMutability": "nonpayable",
      "type": "function"
    },
    {
      "constant": false,
      "inputs": [
        {
          "name": "verifier",
          "type": "address"
        }
      ],
      "name": "removeKycVerifier",
      "outputs": [],
      "payable": false,
      "stateMutability": "nonpayable",
      "type": "function"
    },
    {
      "constant": false,
      "inputs": [
        {
          "name": "uuid_hash",
          "type": "bytes32"
        },
        {
          "name": "name",
          "type": "string"
        },
        {
          "name": "dob",
          "type": "uint256"
        }
      ],
      "name": "kycVerify",
      "outputs": [],
      "payable": false,
      "stateMutability": "nonpayable",
      "type": "function"
    },
    {
      "constant": false,
      "inputs": [
        {
          "name": "uuid_hash",
          "type": "bytes32"
        },
        {
          "name": "voterId",
          "type": "string"
        }
      ],
      "name": "generateVoterId",
      "outputs": [],
      "payable": false,
      "stateMutability": "nonpayable",
      "type": "function"
    }
  ],
  "bytecode": "0x608060405234801561001057600080fd5b50336000806101000a81548173ffffffffffffffffffffffffffffffffffffffff021916908373ffffffffffffffffffffffffffffffffffffffff1602179055506001600260003373ffffffffffffffffffffffffffffffffffffffff1673ffffffffffffffffffffffffffffffffffffffff16815260200190815260200160002060006101000a81548160ff02191690831515021790555060018060003373ffffffffffffffffffffffffffffffffffffffff1673ffffffffffffffffffffffffffffffffffffffff16815260200190815260200160002060006101000a81548160ff02191690831515021790555060006008819055506113d6806101176000396000f3fe608060405234801561001057600080fd5b50600436106100f55760003560e01c8063ab38b21911610097578063e7e0fff811610066578063e7e0fff814610563578063e8b2f84b146105bf578063e9c8767b14610603578063fc13c2a91461064d576100f5565b8063ab38b21914610487578063ae303637146104cb578063c8695cb1146104e9578063dd56653c14610545576100f5565b80635eb0d6db116100d35780635eb0d6db1461035e57806363984b371461042d57806374ba56841461044b578063916e967f14610469576100f5565b80631e8e8d9e146100fa57806337f91f231461013e5780634c4a048114610299575b600080fd5b61013c6004803603602081101561011057600080fd5b81019080803573ffffffffffffffffffffffffffffffffffffffff169060200190929190505050610691565b005b61016a6004803603602081101561015457600080fd5b81019080803590602001909291905050506107dd565b6040518080602001878152602001806020018673ffffffffffffffffffffffffffffffffffffffff1673ffffffffffffffffffffffffffffffffffffffff168152602001858152602001848152602001838103835289818151815260200191508051906020019080838360005b838110156101f25780820151818401526020810190506101d7565b50505050905090810190601f16801561021f5780820380516001836020036101000a031916815260200191505b50838103825287818151815260200191508051906020019080838360005b8381101561025857808201518184015260208101905061023d565b50505050905090810190601f1680156102855780820380516001836020036101000a031916815260200191505b509850505050505050505060405180910390f35b61035c600480360360408110156102af57600080fd5b8101908080359060200190929190803590602001906401000000008111156102d657600080fd5b8201836020820111156102e857600080fd5b8035906020019184600183028401116401000000008311171561030a57600080fd5b91908080601f016020809104026020016040519081016040528093929190818152602001838380828437600081840152601f19601f820116905080830192505050505050509192919290505050610969565b005b61042b6004803603606081101561037457600080fd5b81019080803590602001909291908035906020019064010000000081111561039b57600080fd5b8201836020820111156103ad57600080fd5b803590602001918460018302840111640100000000831117156103cf57600080fd5b91908080601f016020809104026020016040519081016040528093929190818152602001838380828437600081840152601f19601f82011690508083019250505050505050919291929080359060200190929190505050610c87565b005b610435610e75565b6040518082815260200191505060405180910390f35b610453610e7b565b6040518082815260200191505060405180910390f35b610471610e81565b6040518082815260200191505060405180910390f35b6104c96004803603602081101561049d57600080fd5b81019080803573ffffffffffffffffffffffffffffffffffffffff169060200190929190505050610e87565b005b6104d3610fd6565b6040518082815260200191505060405180910390f35b61052b600480360360208110156104ff57600080fd5b81019080803573ffffffffffffffffffffffffffffffffffffffff169060200190929190505050610fdc565b604051808215151515815260200191505060405180910390f35b61054d610ffc565b6040518082815260200191505060405180910390f35b6105a56004803603602081101561057957600080fd5b81019080803573ffffffffffffffffffffffffffffffffffffffff169060200190929190505050611002565b604051808215151515815260200191505060405180910390f35b610601600480360360208110156105d557600080fd5b81019080803573ffffffffffffffffffffffffffffffffffffffff169060200190929190505050611022565b005b61060b611122565b604051808273ffffffffffffffffffffffffffffffffffffffff1673ffffffffffffffffffffffffffffffffffffffff16815260200191505060405180910390f35b61068f6004803603602081101561066357600080fd5b81019080803573ffffffffffffffffffffffffffffffffffffffff169060200190929190505050611147565b005b600260003373ffffffffffffffffffffffffffffffffffffffff1673ffffffffffffffffffffffffffffffffffffffff16815260200190815260200160002060009054906101000a900460ff16610733576040517f08c379a00000000000000000000000000000000000000000000000000000000081526004018080602001828103825260328152602001806113796032913960400191505060405180910390fd5b6000600160008373ffffffffffffffffffffffffffffffffffffffff1673ffffffffffffffffffffffffffffffffffffffff16815260200190815260200160002060006101000a81548160ff021916908315150217905550600160008273ffffffffffffffffffffffffffffffffffffffff1673ffffffffffffffffffffffffffffffffffffffff16815260200190815260200160002060006101000a81549060ff021916905550565b6003602052806000526040600020600091509050806000018054600181600116156101000203166002900480601f0160208091040260200160405190810160405280929190818152602001828054600181600116156101000203166002900480156108895780601f1061085e57610100808354040283529160200191610889565b820191906000526020600020905b81548152906001019060200180831161086c57829003601f168201915b505050505090806001015490806002018054600181600116156101000203166002900480601f01602080910402602001604051908101604052809291908181526020018280546001816001161561010002031660029004801561092d5780601f106109025761010080835404028352916020019161092d565b820191906000526020600020905b81548152906001019060200180831161091057829003601f168201915b5050505050908060030160009054906101000a900473ffffffffffffffffffffffffffffffffffffffff16908060040154908060050154905086565b610971611243565b600360008481526020019081526020016000206040518060c0016040529081600082018054600181600116156101000203166002900480601f016020809104026020016040519081016040528092919081815260200182805460018160011615610100020316600290048015610a285780601f106109fd57610100808354040283529160200191610a28565b820191906000526020600020905b815481529060010190602001808311610a0b57829003601f168201915b5050505050815260200160018201548152602001600282018054600181600116156101000203166002900480601f016020809104026020016040519081016040528092919081815260200182805460018160011615610100020316600290048015610ad45780601f10610aa957610100808354040283529160200191610ad4565b820191906000526020600020905b815481529060010190602001808311610ab757829003601f168201915b505050505081526020016003820160009054906101000a900473ffffffffffffffffffffffffffffffffffffffff1673ffffffffffffffffffffffffffffffffffffffff1673ffffffffffffffffffffffffffffffffffffffff1681526020016004820154815260200160058201548152505090506000816020015190506000640757b12c0082420381610b6457fe5b0490506012811015610bc1576040517f08c379a00000000000000000000000000000000000000000000000000000000081526004018080602001828103825260448152602001806113356044913960600191505060405180910390fd5b83836040018190525082600360008781526020019081526020016000206000820151816000019080519060200190610bfa92919061128f565b50602082015181600101556040820151816002019080519060200190610c2192919061128f565b5060608201518160030160006101000a81548173ffffffffffffffffffffffffffffffffffffffff021916908373ffffffffffffffffffffffffffffffffffffffff1602179055506080820151816004015560a082015181600501559050505050505050565b600160003373ffffffffffffffffffffffffffffffffffffffff1673ffffffffffffffffffffffffffffffffffffffff16815260200190815260200160002060009054906101000a900460ff16610d29576040517f08c379a00000000000000000000000000000000000000000000000000000000081526004018080602001828103825260328152602001806113796032913960400191505060405180910390fd5b6000640757b12c0082420381610d3b57fe5b049050426005819055508160048190555081420360068190555080600781905550610d64611243565b6040518060c001604052808581526020018481526020016040518060200160405280600081525081526020013373ffffffffffffffffffffffffffffffffffffffff16815260200183815260200142815250905080600360008781526020019081526020016000206000820151816000019080519060200190610de892919061128f565b50602082015181600101556040820151816002019080519060200190610e0f92919061128f565b5060608201518160030160006101000a81548173ffffffffffffffffffffffffffffffffffffffff021916908373ffffffffffffffffffffffffffffffffffffffff1602179055506080820151816004015560a082015181600501559050505050505050565b60085481565b60045481565b60055481565b6000809054906101000a900473ffffffffffffffffffffffffffffffffffffffff1673ffffffffffffffffffffffffffffffffffffffff163373ffffffffffffffffffffffffffffffffffffffff1614610f2c576040517f08c379a00000000000000000000000000000000000000000000000000000000081526004018080602001828103825260328152602001806113796032913960400191505060405180910390fd5b6000600260008373ffffffffffffffffffffffffffffffffffffffff1673ffffffffffffffffffffffffffffffffffffffff16815260200190815260200160002060006101000a81548160ff021916908315150217905550600260008273ffffffffffffffffffffffffffffffffffffffff1673ffffffffffffffffffffffffffffffffffffffff16815260200190815260200160002060006101000a81549060ff021916905550565b60075481565b60026020528060005260406000206000915054906101000a900460ff1681565b60065481565b60016020528060005260406000206000915054906101000a900460ff1681565b6000809054906101000a900473ffffffffffffffffffffffffffffffffffffffff1673ffffffffffffffffffffffffffffffffffffffff163373ffffffffffffffffffffffffffffffffffffffff16146110c7576040517f08c379a00000000000000000000000000000000000000000000000000000000081526004018080602001828103825260328152602001806113796032913960400191505060405180910390fd5b6001600260008373ffffffffffffffffffffffffffffffffffffffff1673ffffffffffffffffffffffffffffffffffffffff16815260200190815260200160002060006101000a81548160ff02191690831515021790555050565b6000809054906101000a900473ffffffffffffffffffffffffffffffffffffffff1681565b600260003373ffffffffffffffffffffffffffffffffffffffff1673ffffffffffffffffffffffffffffffffffffffff16815260200190815260200160002060009054906101000a900460ff166111e9576040517f08c379a00000000000000000000000000000000000000000000000000000000081526004018080602001828103825260328152602001806113796032913960400191505060405180910390fd5b60018060008373ffffffffffffffffffffffffffffffffffffffff1673ffffffffffffffffffffffffffffffffffffffff16815260200190815260200160002060006101000a81548160ff02191690831515021790555050565b6040518060c00160405280606081526020016000815260200160608152602001600073ffffffffffffffffffffffffffffffffffffffff16815260200160008152602001600081525090565b828054600181600116156101000203166002900490600052602060002090601f016020900481019282601f106112d057805160ff19168380011785556112fe565b828001600101855582156112fe579182015b828111156112fd5782518255916020019190600101906112e2565b5b50905061130b919061130f565b5090565b61133191905b8082111561132d576000816000905550600101611315565b5090565b9056fe4e6f7420416c6c6f77656420746f20566f74652e204f6e6c7920656c696769626c6520746f20766f7465206966206167652069732061626f76652031382079656172732e596f7520617265206e6f7420417574686f72697a656420746f206d616b6520746869732066756e6374696f6e2043616c6c2ea165627a7a72305820197c631a9243908707cb02305ac83100d8b361f8347f8f4b146e3ceb955f0b8f0029",
  "source": "pragma solidity ^0.5.0;\n\n\ncontract VoterData {\n    \n    struct Voter {\n        string Name;\n        uint256 dob;\n        string voterId;\n        address verifier;\n        uint256 age;\n        uint256 verificationTime;\n    }\n\n    address public EC_Head;\n    mapping(address => bool) public kyc_verifiers;\n    mapping(address => bool) public ec_officials;\n\n    mapping(bytes32 => Voter) public voters;\n\n    uint256 public dob_now;\n    uint256 public time_now;\n    uint256 public difference;\n    uint256 public age_now;\n    // event Approval(address indexed tokenOwner, address indexed spender, uint tokens);\n    // event Transfer(address indexed from, address indexed to, uint tokens);\n\n    uint256 public verified_voter_count;\n   \n\n    using SafeMath for uint;\n    \n    modifier onlyEcHead {\n        require((msg.sender == EC_Head), \"You are not Authorized to make this function Call.\");\n        _;\n    }\n    modifier onlyEcOfficial {\n        require((ec_officials[msg.sender]), \"You are not Authorized to make this function Call.\");\n        _;\n    }\n    modifier onlyKycVerifier {\n        require((kyc_verifiers[msg.sender]), \"You are not Authorized to make this function Call.\");\n        _;\n    }\n\n   constructor() public {  \n\t\n    EC_Head = msg.sender;\n    ec_officials[msg.sender] = true;\n    kyc_verifiers[msg.sender] = true;\n    verified_voter_count = 0;\n\n    }  \n\n    function addEcOfficial (address official) public onlyEcHead {\n        ec_officials[official] = true;\n    }\n    function removeEcOfficial(address official) public onlyEcHead {\n        ec_officials[official] = false;\n        delete ec_officials[official];\n    }\n    function addKycVerifier (address verifier) public onlyEcOfficial {\n        kyc_verifiers[verifier] = true;\n    }\n    function removeKycVerifier(address verifier) public onlyEcOfficial {\n        kyc_verifiers[verifier] = false;\n        delete kyc_verifiers[verifier];\n    }\n    \n    function kycVerify(bytes32  uuid_hash, string memory name, uint256 dob) public onlyKycVerifier {\n        uint256 age = (block.timestamp - dob)/(1000*60*60*24*365);\n        time_now = block.timestamp;\n        dob_now = dob;\n        difference = (block.timestamp - dob);\n        age_now = age;\n        Voter memory voter = Voter(name, dob, \"\", msg.sender, age, block.timestamp);\n        voters[uuid_hash] = voter;\n    }\n\n    function generateVoterId(bytes32 uuid_hash, string memory voterId) public {\n        \n        Voter memory voter = voters[uuid_hash];\n        uint256 dob = voter.dob;\n        uint256 age = (block.timestamp - dob)/(1000*60*60*24*365);\n        // require(1==0, \"failed\");\n        require(age >= 18, \"Not Allowed to Vote. Only eligible to vote if age is above 18 years.\"); \n        voter.voterId = voterId;\n        // voter.voterId = voterId;\n        voters[uuid_hash] = voter;\n\n    }\n}\n\nlibrary SafeMath { \n    function sub(uint256 a, uint256 b) internal pure returns (uint256) {\n      assert(b <= a);\n      return a - b;\n    }\n    \n    function add(uint256 a, uint256 b) internal pure returns (uint256) {\n      uint256 c = a + b;\n      assert(c >= a);\n      return c;\n    }\n\n}\n",
  "sourcePath": "/home/akash/Videos/Excalibur-code-fun-do/blockchain/contracts/VoterData.sol",
  "compiler": {
    "name": "solc",
    "version": "0.5.8+commit.23d335f2.Emscripten.clang"
  },
  "schemaVersion": "3.0.11",
  "updatedAt": "2019-08-14T19:25:35.593Z",
  "devdoc": {
    "methods": {}
  },
  "userdoc": {
    "methods": {}
  }
}