{
  "contractName": "Election",
  "abi": [
    {
      "constant": true,
      "inputs": [
        {
          "name": "",
          "type": "bytes32"
        }
      ],
      "name": "hasVoted",
      "outputs": [
        {
          "name": "",
          "type": "bool"
        }
      ],
      "payable": false,
      "stateMutability": "view",
      "type": "function"
    },
    {
      "constant": true,
      "inputs": [],
      "name": "endTime",
      "outputs": [
        {
          "name": "",
          "type": "uint256"
        }
      ],
      "payable": false,
      "stateMutability": "view",
      "type": "function"
    },
    {
      "constant": true,
      "inputs": [],
      "name": "voterCount",
      "outputs": [
        {
          "name": "",
          "type": "uint256"
        }
      ],
      "payable": false,
      "stateMutability": "view",
      "type": "function"
    },
    {
      "constant": true,
      "inputs": [
        {
          "name": "",
          "type": "uint256"
        }
      ],
      "name": "parties",
      "outputs": [
        {
          "name": "",
          "type": "string"
        }
      ],
      "payable": false,
      "stateMutability": "view",
      "type": "function"
    },
    {
      "constant": true,
      "inputs": [],
      "name": "beginTime",
      "outputs": [
        {
          "name": "",
          "type": "uint256"
        }
      ],
      "payable": false,
      "stateMutability": "view",
      "type": "function"
    },
    {
      "constant": true,
      "inputs": [
        {
          "name": "",
          "type": "uint256"
        }
      ],
      "name": "constituencies",
      "outputs": [
        {
          "name": "",
          "type": "string"
        }
      ],
      "payable": false,
      "stateMutability": "view",
      "type": "function"
    },
    {
      "constant": true,
      "inputs": [
        {
          "name": "",
          "type": "string"
        },
        {
          "name": "",
          "type": "string"
        }
      ],
      "name": "result",
      "outputs": [
        {
          "name": "",
          "type": "uint256"
        }
      ],
      "payable": false,
      "stateMutability": "view",
      "type": "function"
    },
    {
      "constant": true,
      "inputs": [
        {
          "name": "",
          "type": "address"
        }
      ],
      "name": "ec_officials",
      "outputs": [
        {
          "name": "",
          "type": "bool"
        }
      ],
      "payable": false,
      "stateMutability": "view",
      "type": "function"
    },
    {
      "constant": true,
      "inputs": [],
      "name": "EC_Head",
      "outputs": [
        {
          "name": "",
          "type": "address"
        }
      ],
      "payable": false,
      "stateMutability": "view",
      "type": "function"
    },
    {
      "constant": true,
      "inputs": [
        {
          "name": "",
          "type": "string"
        },
        {
          "name": "",
          "type": "string"
        },
        {
          "name": "",
          "type": "uint256"
        }
      ],
      "name": "vote_hashes",
      "outputs": [
        {
          "name": "",
          "type": "bytes32"
        }
      ],
      "payable": false,
      "stateMutability": "view",
      "type": "function"
    },
    {
      "inputs": [],
      "payable": false,
      "stateMutability": "nonpayable",
      "type": "constructor"
    },
    {
      "constant": false,
      "inputs": [
        {
          "name": "official",
          "type": "address"
        }
      ],
      "name": "addEcOfficial",
      "outputs": [],
      "payable": false,
      "stateMutability": "nonpayable",
      "type": "function"
    },
    {
      "constant": false,
      "inputs": [
        {
          "name": "official",
          "type": "address"
        }
      ],
      "name": "removeEcOfficial",
      "outputs": [],
      "payable": false,
      "stateMutability": "nonpayable",
      "type": "function"
    },
    {
      "constant": false,
      "inputs": [
        {
          "name": "party_name",
          "type": "string"
        }
      ],
      "name": "addParty",
      "outputs": [],
      "payable": false,
      "stateMutability": "nonpayable",
      "type": "function"
    },
    {
      "constant": false,
      "inputs": [
        {
          "name": "constituency",
          "type": "string"
        }
      ],
      "name": "addConstituency",
      "outputs": [],
      "payable": false,
      "stateMutability": "nonpayable",
      "type": "function"
    },
    {
      "constant": false,
      "inputs": [
        {
          "name": "uuid_hash",
          "type": "bytes32"
        },
        {
          "name": "constituency",
          "type": "string"
        },
        {
          "name": "party",
          "type": "string"
        },
        {
          "name": "vote_hash",
          "type": "bytes32"
        }
      ],
      "name": "registerVote",
      "outputs": [],
      "payable": false,
      "stateMutability": "nonpayable",
      "type": "function"
    },
    {
      "constant": false,
      "inputs": [],
      "name": "calculateVotes",
      "outputs": [
        {
          "name": "",
          "type": "bool"
        }
      ],
      "payable": false,
      "stateMutability": "nonpayable",
      "type": "function"
    },
    {
      "constant": true,
      "inputs": [
        {
          "name": "constituency",
          "type": "string"
        }
      ],
      "name": "getWinner",
      "outputs": [
        {
          "name": "",
          "type": "string"
        }
      ],
      "payable": false,
      "stateMutability": "view",
      "type": "function"
    },
    {
      "constant": true,
      "inputs": [
        {
          "name": "constituency",
          "type": "string"
        },
        {
          "name": "party",
          "type": "string"
        }
      ],
      "name": "getVoteHashes",
      "outputs": [
        {
          "name": "",
          "type": "bytes32[]"
        }
      ],
      "payable": false,
      "stateMutability": "view",
      "type": "function"
    },
    {
      "constant": true,
      "inputs": [
        {
          "name": "constituency",
          "type": "string"
        },
        {
          "name": "party",
          "type": "string"
        }
      ],
      "name": "getVoteCount",
      "outputs": [
        {
          "name": "",
          "type": "uint256"
        }
      ],
      "payable": false,
      "stateMutability": "view",
      "type": "function"
    }
  ],
  "bytecode": "0x608060405234801561001057600080fd5b50336000806101000a81548173ffffffffffffffffffffffffffffffffffffffff021916908373ffffffffffffffffffffffffffffffffffffffff16021790555060018060003373ffffffffffffffffffffffffffffffffffffffff1673ffffffffffffffffffffffffffffffffffffffff16815260200190815260200160002060006101000a81548160ff0219169083151502179055506000600581905550611b69806100bf6000396000f3fe608060405234801561001057600080fd5b50600436106101215760003560e01c806388149fb9116100ad578063df56ce5611610071578063df56ce5614610340578063e8b2f84b14610370578063e9c8767b1461038c578063f2ba18ed146103aa578063f4ffc69c146103c857610121565b806388149fb9146102765780639209416a14610294578063a294d975146102c4578063ab38b219146102f4578063c8695cb11461031057610121565b806342169e48116100f457806342169e48146101c057806350f10b1f146101de5780635b80df90146101fa5780635df3e2711461022a57806370651a181461024657610121565b806305a395a5146101265780631694fa7d146101425780631b4613cb146101725780633197cbb6146101a2575b600080fd5b610140600480360361013b9190810190611387565b6103f8565b005b61015c600480360361015791908101906113c8565b6104c6565b604051610169919061192b565b60405180910390f35b61018c600480360361018791908101906112cb565b61050b565b6040516101999190611871565b60405180910390f35b6101aa61052b565b6040516101b7919061192b565b60405180910390f35b6101c8610531565b6040516101d5919061192b565b60405180910390f35b6101f860048036036101f391908101906112f4565b610537565b005b610214600480360361020f9190810190611387565b610640565b60405161022191906118c9565b60405180910390f35b610244600480360361023f9190810190611387565b610700565b005b610260600480360361025b919081019061151f565b6107ce565b60405161026d91906118a7565b60405180910390f35b61027e610887565b60405161028b919061192b565b60405180910390f35b6102ae60048036036102a9919081019061151f565b61088d565b6040516102bb91906118a7565b60405180910390f35b6102de60048036036102d99190810190611434565b610946565b6040516102eb919061192b565b60405180910390f35b61030e600480360361030991908101906112a2565b610997565b005b61032a600480360361032591908101906112a2565b610ad0565b6040516103379190611871565b60405180910390f35b61035a600480360361035591908101906113c8565b610af0565b604051610367919061184f565b60405180910390f35b61038a600480360361038591908101906112a2565b610b83565b005b610394610c6c565b6040516103a19190611834565b60405180910390f35b6103b2610c91565b6040516103bf9190611871565b60405180910390f35b6103e260048036036103dd91908101906114a0565b6110af565b6040516103ef919061188c565b60405180910390f35b600160003373ffffffffffffffffffffffffffffffffffffffff1673ffffffffffffffffffffffffffffffffffffffff16815260200190815260200160002060009054906101000a900460ff16610484576040517f08c379a000000000000000000000000000000000000000000000000000000000815260040161047b9061190b565b60405180910390fd5b60028190806001815401808255809150509060018203906000526020600020016000909192909190915090805190602001906104c1929190611116565b505050565b60006007836040516104d89190611806565b9081526020016040518091039020826040516104f49190611806565b908152602001604051809103902054905092915050565b60046020528060005260406000206000915054906101000a900460ff1681565b600a5481565b60055481565b6004600085815260200190815260200160002060009054906101000a900460ff1615610598576040517f08c379a000000000000000000000000000000000000000000000000000000000815260040161058f906118eb565b60405180910390fd5b6006836040516105a89190611806565b9081526020016040518091039020826040516105c49190611806565b908152602001604051809103902081908060018154018082558091505090600182039060005260206000200160009091929091909150555060056000815480929190600101919050555060016004600086815260200190815260200160002060006101000a81548160ff02191690831515021790555050505050565b60606008826040516106529190611806565b90815260200160405180910390208054600181600116156101000203166002900480601f0160208091040260200160405190810160405280929190818152602001828054600181600116156101000203166002900480156106f45780601f106106c9576101008083540402835291602001916106f4565b820191906000526020600020905b8154815290600101906020018083116106d757829003601f168201915b50505050509050919050565b600160003373ffffffffffffffffffffffffffffffffffffffff1673ffffffffffffffffffffffffffffffffffffffff16815260200190815260200160002060009054906101000a900460ff1661078c576040517f08c379a00000000000000000000000000000000000000000000000000000000081526004016107839061190b565b60405180910390fd5b60038190806001815401808255809150509060018203906000526020600020016000909192909190915090805190602001906107c9929190611116565b505050565b600381815481106107db57fe5b906000526020600020016000915090508054600181600116156101000203166002900480601f01602080910402602001604051908101604052809291908181526020018280546001816001161561010002031660029004801561087f5780601f106108545761010080835404028352916020019161087f565b820191906000526020600020905b81548152906001019060200180831161086257829003601f168201915b505050505081565b60095481565b6002818154811061089a57fe5b906000526020600020016000915090508054600181600116156101000203166002900480601f01602080910402602001604051908101604052809291908181526020018280546001816001161561010002031660029004801561093e5780601f106109135761010080835404028352916020019161093e565b820191906000526020600020905b81548152906001019060200180831161092157829003601f168201915b505050505081565b60078280516020810182018051848252602083016020850120818352809550505050505081805160208101820180518482526020830160208501208183528095505050505050600091509150505481565b6000809054906101000a900473ffffffffffffffffffffffffffffffffffffffff1673ffffffffffffffffffffffffffffffffffffffff163373ffffffffffffffffffffffffffffffffffffffff1614610a26576040517f08c379a0000000000000000000000000000000000000000000000000000000008152600401610a1d9061190b565b60405180910390fd5b6000600160008373ffffffffffffffffffffffffffffffffffffffff1673ffffffffffffffffffffffffffffffffffffffff16815260200190815260200160002060006101000a81548160ff021916908315150217905550600160008273ffffffffffffffffffffffffffffffffffffffff1673ffffffffffffffffffffffffffffffffffffffff16815260200190815260200160002060006101000a81549060ff021916905550565b60016020528060005260406000206000915054906101000a900460ff1681565b6060600683604051610b029190611806565b908152602001604051809103902082604051610b1e9190611806565b9081526020016040518091039020805480602002602001604051908101604052809291908181526020018280548015610b7657602002820191906000526020600020905b815481526020019060010190808311610b62575b5050505050905092915050565b6000809054906101000a900473ffffffffffffffffffffffffffffffffffffffff1673ffffffffffffffffffffffffffffffffffffffff163373ffffffffffffffffffffffffffffffffffffffff1614610c12576040517f08c379a0000000000000000000000000000000000000000000000000000000008152600401610c099061190b565b60405180910390fd5b60018060008373ffffffffffffffffffffffffffffffffffffffff1673ffffffffffffffffffffffffffffffffffffffff16815260200190815260200160002060006101000a81548160ff02191690831515021790555050565b6000809054906101000a900473ffffffffffffffffffffffffffffffffffffffff1681565b60008060009054906101000a900473ffffffffffffffffffffffffffffffffffffffff1673ffffffffffffffffffffffffffffffffffffffff163373ffffffffffffffffffffffffffffffffffffffff1614610d22576040517f08c379a0000000000000000000000000000000000000000000000000000000008152600401610d199061190b565b60405180910390fd5b606060008090505b6002805490508110156110a6576003600081548110610d4557fe5b906000526020600020018054600181600116156101000203166002900480601f016020809104026020016040519081016040528092919081815260200182805460018160011615610100020316600290048015610de35780601f10610db857610100808354040283529160200191610de3565b820191906000526020600020905b815481529060010190602001808311610dc657829003601f168201915b5050505050915060008090505b60038054905081101561104f57600660028381548110610e0c57fe5b90600052602060002001604051610e23919061181d565b908152602001604051809103902060038281548110610e3e57fe5b90600052602060002001604051610e55919061181d565b908152602001604051809103902080549050600760028481548110610e7657fe5b90600052602060002001604051610e8d919061181d565b908152602001604051809103902060038381548110610ea857fe5b90600052602060002001604051610ebf919061181d565b908152602001604051809103902081905550600760028381548110610ee057fe5b90600052602060002001604051610ef7919061181d565b908152602001604051809103902083604051610f139190611806565b908152602001604051809103902054600760028481548110610f3157fe5b90600052602060002001604051610f48919061181d565b908152602001604051809103902060038381548110610f6357fe5b90600052602060002001604051610f7a919061181d565b90815260200160405180910390205411156110425760038181548110610f9c57fe5b906000526020600020018054600181600116156101000203166002900480601f01602080910402602001604051908101604052809291908181526020018280546001816001161561010002031660029004801561103a5780601f1061100f5761010080835404028352916020019161103a565b820191906000526020600020905b81548152906001019060200180831161101d57829003601f168201915b505050505092505b8080600101915050610df0565b508160086002838154811061106057fe5b90600052602060002001604051611077919061181d565b90815260200160405180910390209080519060200190611098929190611116565b508080600101915050610d2a565b50600191505090565b60068380516020810182018051848252602083016020850120818352809550505050505082805160208101820180518482526020830160208501208183528095505050505050818154811061110057fe5b9060005260206000200160009250925050505481565b828054600181600116156101000203166002900490600052602060002090601f016020900481019282601f1061115757805160ff1916838001178555611185565b82800160010185558215611185579182015b82811115611184578251825591602001919060010190611169565b5b5090506111929190611196565b5090565b6111b891905b808211156111b457600081600090555060010161119c565b5090565b90565b6000813590506111ca81611aea565b92915050565b6000813590506111df81611b01565b92915050565b600082601f8301126111f657600080fd5b813561120961120482611973565b611946565b9150808252602083016020830185838301111561122557600080fd5b611230838284611a97565b50505092915050565b600082601f83011261124a57600080fd5b813561125d6112588261199f565b611946565b9150808252602083016020830185838301111561127957600080fd5b611284838284611a97565b50505092915050565b60008135905061129c81611b18565b92915050565b6000602082840312156112b457600080fd5b60006112c2848285016111bb565b91505092915050565b6000602082840312156112dd57600080fd5b60006112eb848285016111d0565b91505092915050565b6000806000806080858703121561130a57600080fd5b6000611318878288016111d0565b945050602085013567ffffffffffffffff81111561133557600080fd5b61134187828801611239565b935050604085013567ffffffffffffffff81111561135e57600080fd5b61136a87828801611239565b925050606061137b878288016111d0565b91505092959194509250565b60006020828403121561139957600080fd5b600082013567ffffffffffffffff8111156113b357600080fd5b6113bf84828501611239565b91505092915050565b600080604083850312156113db57600080fd5b600083013567ffffffffffffffff8111156113f557600080fd5b61140185828601611239565b925050602083013567ffffffffffffffff81111561141e57600080fd5b61142a85828601611239565b9150509250929050565b6000806040838503121561144757600080fd5b600083013567ffffffffffffffff81111561146157600080fd5b61146d858286016111e5565b925050602083013567ffffffffffffffff81111561148a57600080fd5b611496858286016111e5565b9150509250929050565b6000806000606084860312156114b557600080fd5b600084013567ffffffffffffffff8111156114cf57600080fd5b6114db868287016111e5565b935050602084013567ffffffffffffffff8111156114f857600080fd5b611504868287016111e5565b92505060406115158682870161128d565b9150509250925092565b60006020828403121561153157600080fd5b600061153f8482850161128d565b91505092915050565b600061155483836115dc565b60208301905092915050565b61156981611a45565b82525050565b600061157a826119ea565b6115848185611a18565b935061158f836119cb565b8060005b838110156115c05781516115a78882611548565b97506115b283611a0b565b925050600181019050611593565b5085935050505092915050565b6115d681611a57565b82525050565b6115e581611a63565b82525050565b6115f481611a63565b82525050565b600061160582611a00565b61160f8185611a29565b935061161f818560208601611aa6565b61162881611ad9565b840191505092915050565b600061163e82611a00565b6116488185611a3a565b9350611658818560208601611aa6565b80840191505092915050565b600061166f826119f5565b6116798185611a29565b9350611689818560208601611aa6565b61169281611ad9565b840191505092915050565b6000815460018116600081146116ba57600181146116df57611723565b607f60028304166116cb8187611a3a565b955060ff1983168652808601935050611723565b600282046116ed8187611a3a565b95506116f8856119d8565b60005b8281101561171a578154818901526001820191506020810190506116fb565b82880195505050505b505092915050565b6000611738602683611a29565b91507f54686520766f7465722068617320616c726561647920766f7465642e2041626f60008301527f7274696e672e00000000000000000000000000000000000000000000000000006020830152604082019050919050565b600061179e603283611a29565b91507f596f7520617265206e6f7420417574686f72697a656420746f206d616b65207460008301527f6869732066756e6374696f6e2043616c6c2e00000000000000000000000000006020830152604082019050919050565b61180081611a8d565b82525050565b60006118128284611633565b915081905092915050565b6000611829828461169d565b915081905092915050565b60006020820190506118496000830184611560565b92915050565b60006020820190508181036000830152611869818461156f565b905092915050565b600060208201905061188660008301846115cd565b92915050565b60006020820190506118a160008301846115eb565b92915050565b600060208201905081810360008301526118c18184611664565b905092915050565b600060208201905081810360008301526118e381846115fa565b905092915050565b600060208201905081810360008301526119048161172b565b9050919050565b6000602082019050818103600083015261192481611791565b9050919050565b600060208201905061194060008301846117f7565b92915050565b6000604051905081810181811067ffffffffffffffff8211171561196957600080fd5b8060405250919050565b600067ffffffffffffffff82111561198a57600080fd5b601f19601f8301169050602081019050919050565b600067ffffffffffffffff8211156119b657600080fd5b601f19601f8301169050602081019050919050565b6000602082019050919050565b60008160005260206000209050919050565b600081519050919050565b600081519050919050565b600081519050919050565b6000602082019050919050565b600082825260208201905092915050565b600082825260208201905092915050565b600081905092915050565b6000611a5082611a6d565b9050919050565b60008115159050919050565b6000819050919050565b600073ffffffffffffffffffffffffffffffffffffffff82169050919050565b6000819050919050565b82818337600083830152505050565b60005b83811015611ac4578082015181840152602081019050611aa9565b83811115611ad3576000848401525b50505050565b6000601f19601f8301169050919050565b611af381611a45565b8114611afe57600080fd5b50565b611b0a81611a63565b8114611b1557600080fd5b50565b611b2181611a8d565b8114611b2c57600080fd5b5056fea265627a7a72305820b55f80eb6d20eb67ab9e1c2a53515e331b156834bd84c5a72024de02161c6ea56c6578706572696d656e74616cf50037",
  "source": "pragma solidity ^0.5.0;\npragma experimental ABIEncoderV2;\n\n// import \"./VoteVault.sol\";\n\ncontract Election {\n \n    address public EC_Head;\n    mapping(address => bool) public ec_officials;\n\n    // event Approval(address indexed tokenOwner, address indexed spender, uint tokens);\n    // event Transfer(address indexed from, address indexed to, uint tokens);\n\n    string[] public  constituencies;\n    string[] public parties;\n    // mapping(uint8 => string) public partyName;\n    mapping(bytes32 => bool) public hasVoted;\n    \n    uint public voterCount;\n    mapping(string => mapping (string => bytes32[])) public vote_hashes;\n    mapping(string => mapping (string => uint)) public result;\n    mapping(string => string)  winner;\n\n    // Vault opens/opened at this time\n    uint256 public beginTime;\n    \n    // Vault closes/Closed at this times\n    uint256 public endTime;\n    \n   \n\n    using SafeMath for uint;\n    \n    modifier onlyEcHead {\n        require((msg.sender == EC_Head), \"You are not Authorized to make this function Call.\");\n        _;\n    }\n    modifier onlyEcOfficial {\n        require((ec_officials[msg.sender]), \"You are not Authorized to make this function Call.\");\n        _;\n    }\n\n\n   constructor() public {  \n\t\n    EC_Head = msg.sender;\n    ec_officials[msg.sender] = true;\n    voterCount = 0;\n    }  \n\n    function addEcOfficial (address official) public onlyEcHead {\n        ec_officials[official] = true;\n    }\n    function removeEcOfficial(address official) public onlyEcHead {\n        ec_officials[official] = false;\n        delete ec_officials[official];\n    }\n\n    function addParty (string memory party_name) public onlyEcOfficial {\n        // require(!isVaultOpened);\n        // require(beginTime >= uint256(now), \"Cannot add a party after the elections have started.\");\n        parties.push(party_name);\n    }\n    function addConstituency (string memory constituency) public onlyEcOfficial{\n        // require(!isVaultOpened);\n        // require(beginTime >= uint256(now), \"Cannot add a constituency after the elections have started.\");\n        constituencies.push(constituency);\n    }\n\n    function registerVote(bytes32 uuid_hash, string memory constituency, string memory party,  bytes32 vote_hash) public {\n        // require(!vaultSealed);\n        // require(isVaultOpened);\n        // require(beginTime <= uint256(now), \"The elections haven't started yet\"); \n        // require(endTime >= uint256(now), \"The election period is over\");\n        require(!(hasVoted[uuid_hash]), \"The voter has already voted. Aborting.\");\n\n        vote_hashes[constituency][party].push(vote_hash);\n        voterCount++;\n        hasVoted[uuid_hash] = true;\n    }\n\n    function calculateVotes() public  onlyEcHead returns (bool) {\n        // require(endTime <= uint256(now), \"The election period is not over. Can't calculate the votes before election ends.\");\n        string memory _winner;\n\n        for (uint i = 0; i < constituencies.length; i++)\n        {\n            _winner = parties[0];\n            for (uint j = 0; j < parties.length; j++){\n                 result[constituencies[i]][parties[j]] = vote_hashes[constituencies[i]][parties[j]].length;\n                if ( result[constituencies[i]][parties[j]] > result[constituencies[i]][_winner]){\n                    _winner = parties[j];\n                }\n            }\n             winner[constituencies[i]] = _winner;\n        }\n        return true;\n    }\n\n    function getWinner(string memory constituency) public view returns (string memory) {\n        return  winner[constituency];\n    }\n    function getVoteHashes(string memory constituency, string memory party) public view returns (bytes32[] memory) {\n        return  vote_hashes[constituency][party];\n    }\n    function getVoteCount(string memory constituency, string memory party) public view returns (uint) {\n        return  result[constituency][party];\n    }\n}\n\nlibrary SafeMath { \n    function sub(uint256 a, uint256 b) internal pure returns (uint256) {\n      assert(b <= a);\n      return a - b;\n    }\n    \n    function add(uint256 a, uint256 b) internal pure returns (uint256) {\n      uint256 c = a + b;\n      assert(c >= a);\n      return c;\n    }\n}\n",
  "sourcePath": "/home/tezansahu/Tezan/Github Repos/Excalibur-code-fun-do/Dapp/contracts/Election.sol",
  "compiler": {
    "name": "solc",
    "version": "0.5.8+commit.23d335f2.Emscripten.clang"
  },
  "schemaVersion": "3.0.11",
  "updatedAt": "2019-08-20T19:25:36.221Z",
  "devdoc": {
    "methods": {}
  },
  "userdoc": {
    "methods": {}
  }
}