{
  "contractName": "Election",
  "abi": [
    {
      "constant": true,
      "inputs": [
        {
          "name": "",
          "type": "bytes32"
        }
      ],
      "name": "hasVoted",
      "outputs": [
        {
          "name": "",
          "type": "bool"
        }
      ],
      "payable": false,
      "stateMutability": "view",
      "type": "function"
    },
    {
      "constant": true,
      "inputs": [],
      "name": "endTime",
      "outputs": [
        {
          "name": "",
          "type": "uint256"
        }
      ],
      "payable": false,
      "stateMutability": "view",
      "type": "function"
    },
    {
      "constant": true,
      "inputs": [],
      "name": "voterCount",
      "outputs": [
        {
          "name": "",
          "type": "uint256"
        }
      ],
      "payable": false,
      "stateMutability": "view",
      "type": "function"
    },
    {
      "constant": true,
      "inputs": [],
      "name": "vaultSealed",
      "outputs": [
        {
          "name": "",
          "type": "bool"
        }
      ],
      "payable": false,
      "stateMutability": "view",
      "type": "function"
    },
    {
      "constant": true,
      "inputs": [
        {
          "name": "",
          "type": "uint256"
        }
      ],
      "name": "parties",
      "outputs": [
        {
          "name": "",
          "type": "string"
        }
      ],
      "payable": false,
      "stateMutability": "view",
      "type": "function"
    },
    {
      "constant": true,
      "inputs": [],
      "name": "beginTime",
      "outputs": [
        {
          "name": "",
          "type": "uint256"
        }
      ],
      "payable": false,
      "stateMutability": "view",
      "type": "function"
    },
    {
      "constant": true,
      "inputs": [
        {
          "name": "",
          "type": "uint256"
        }
      ],
      "name": "constituencies",
      "outputs": [
        {
          "name": "",
          "type": "string"
        }
      ],
      "payable": false,
      "stateMutability": "view",
      "type": "function"
    },
    {
      "constant": true,
      "inputs": [
        {
          "name": "",
          "type": "address"
        }
      ],
      "name": "ec_officials",
      "outputs": [
        {
          "name": "",
          "type": "bool"
        }
      ],
      "payable": false,
      "stateMutability": "view",
      "type": "function"
    },
    {
      "constant": true,
      "inputs": [
        {
          "name": "",
          "type": "address"
        }
      ],
      "name": "kyc_verifiers",
      "outputs": [
        {
          "name": "",
          "type": "bool"
        }
      ],
      "payable": false,
      "stateMutability": "view",
      "type": "function"
    },
    {
      "constant": true,
      "inputs": [],
      "name": "EC_Head",
      "outputs": [
        {
          "name": "",
          "type": "address"
        }
      ],
      "payable": false,
      "stateMutability": "view",
      "type": "function"
    },
    {
      "constant": true,
      "inputs": [
        {
          "name": "",
          "type": "bytes32"
        }
      ],
      "name": "kycDone",
      "outputs": [
        {
          "name": "",
          "type": "bool"
        }
      ],
      "payable": false,
      "stateMutability": "view",
      "type": "function"
    },
    {
      "constant": true,
      "inputs": [],
      "name": "isVaultOpened",
      "outputs": [
        {
          "name": "",
          "type": "bool"
        }
      ],
      "payable": false,
      "stateMutability": "view",
      "type": "function"
    },
    {
      "inputs": [],
      "payable": false,
      "stateMutability": "nonpayable",
      "type": "constructor"
    },
    {
      "constant": false,
      "inputs": [
        {
          "name": "official",
          "type": "address"
        }
      ],
      "name": "addEcOfficial",
      "outputs": [],
      "payable": false,
      "stateMutability": "nonpayable",
      "type": "function"
    },
    {
      "constant": false,
      "inputs": [
        {
          "name": "official",
          "type": "address"
        }
      ],
      "name": "removeEcOfficial",
      "outputs": [],
      "payable": false,
      "stateMutability": "nonpayable",
      "type": "function"
    },
    {
      "constant": false,
      "inputs": [
        {
          "name": "verifier",
          "type": "address"
        }
      ],
      "name": "addKycVerifier",
      "outputs": [],
      "payable": false,
      "stateMutability": "nonpayable",
      "type": "function"
    },
    {
      "constant": false,
      "inputs": [
        {
          "name": "verifier",
          "type": "address"
        }
      ],
      "name": "removeKycVerifier",
      "outputs": [],
      "payable": false,
      "stateMutability": "nonpayable",
      "type": "function"
    },
    {
      "constant": false,
      "inputs": [
        {
          "name": "party_name",
          "type": "string"
        }
      ],
      "name": "addParty",
      "outputs": [],
      "payable": false,
      "stateMutability": "nonpayable",
      "type": "function"
    },
    {
      "constant": false,
      "inputs": [
        {
          "name": "constituency",
          "type": "string"
        }
      ],
      "name": "addConstituency",
      "outputs": [],
      "payable": false,
      "stateMutability": "nonpayable",
      "type": "function"
    },
    {
      "constant": false,
      "inputs": [
        {
          "name": "uuid_hash",
          "type": "bytes32"
        }
      ],
      "name": "kycVerify",
      "outputs": [],
      "payable": false,
      "stateMutability": "nonpayable",
      "type": "function"
    },
    {
      "constant": false,
      "inputs": [
        {
          "name": "_startTime",
          "type": "uint256"
        },
        {
          "name": "_closureTime",
          "type": "uint256"
        }
      ],
      "name": "openVault",
      "outputs": [],
      "payable": false,
      "stateMutability": "nonpayable",
      "type": "function"
    },
    {
      "constant": false,
      "inputs": [],
      "name": "closeVault",
      "outputs": [],
      "payable": false,
      "stateMutability": "nonpayable",
      "type": "function"
    },
    {
      "constant": false,
      "inputs": [],
      "name": "sealVault",
      "outputs": [],
      "payable": false,
      "stateMutability": "nonpayable",
      "type": "function"
    },
    {
      "constant": false,
      "inputs": [
        {
          "name": "uuid_hash",
          "type": "bytes32"
        },
        {
          "name": "constituency",
          "type": "string"
        },
        {
          "name": "party",
          "type": "string"
        },
        {
          "name": "vote_hash",
          "type": "bytes32"
        }
      ],
      "name": "registerVote",
      "outputs": [],
      "payable": false,
      "stateMutability": "nonpayable",
      "type": "function"
    },
    {
      "constant": false,
      "inputs": [],
      "name": "calculateVotes",
      "outputs": [
        {
          "name": "",
          "type": "bool"
        }
      ],
      "payable": false,
      "stateMutability": "nonpayable",
      "type": "function"
    },
    {
      "constant": true,
      "inputs": [
        {
          "name": "constituency",
          "type": "string"
        }
      ],
      "name": "getWinner",
      "outputs": [
        {
          "name": "",
          "type": "string"
        }
      ],
      "payable": false,
      "stateMutability": "view",
      "type": "function"
    },
    {
      "constant": true,
      "inputs": [
        {
          "name": "constituency",
          "type": "string"
        },
        {
          "name": "party",
          "type": "string"
        }
      ],
      "name": "getVoteHashes",
      "outputs": [
        {
          "name": "",
          "type": "bytes32[]"
        }
      ],
      "payable": false,
      "stateMutability": "view",
      "type": "function"
    },
    {
      "constant": true,
      "inputs": [
        {
          "name": "constituency",
          "type": "string"
        },
        {
          "name": "party",
          "type": "string"
        }
      ],
      "name": "getVoteCount",
      "outputs": [
        {
          "name": "",
          "type": "uint256"
        }
      ],
      "payable": false,
      "stateMutability": "view",
      "type": "function"
    }
  ],
  "bytecode": "0x608060405234801561001057600080fd5b50336000806101000a81548173ffffffffffffffffffffffffffffffffffffffff021916908373ffffffffffffffffffffffffffffffffffffffff1602179055506001600260003373ffffffffffffffffffffffffffffffffffffffff1673ffffffffffffffffffffffffffffffffffffffff16815260200190815260200160002060006101000a81548160ff02191690831515021790555060018060003373ffffffffffffffffffffffffffffffffffffffff1673ffffffffffffffffffffffffffffffffffffffff16815260200190815260200160002060006101000a81548160ff02191690831515021790555060006007819055506000600d60006101000a81548160ff0219169083151502179055506000600d60016101000a81548160ff021916908315150217905550611fdc8061014d6000396000f3fe608060405234801561001057600080fd5b50600436106101a95760003560e01c806370651a18116100f9578063e8b2f84b11610097578063f2ba18ed11610071578063f2ba18ed146104de578063f7c89378146104fc578063fb67e47514610506578063fc13c2a914610524576101a9565b8063e8b2f84b14610474578063e9c8767b14610490578063ecf07ceb146104ae576101a9565b8063ab38b219116100d3578063ab38b219146103c8578063c8695cb1146103e4578063df56ce5614610414578063e7e0fff814610444576101a9565b806370651a181461034a57806388149fb91461037a5780639209416a14610398576101a9565b80633197cbb61161016657806359cb83d01161014057806359cb83d0146102c45780635b80df90146102e05780635df3e27114610310578063662649051461032c576101a9565b80633197cbb61461026c57806342169e481461028a57806350f10b1f146102a8576101a9565b806305a395a5146101ae5780631694fa7d146101ca578063183f507a146101fa57806318976fa2146102165780631b4613cb146102205780631e8e8d9e14610250575b600080fd5b6101c860048036036101c39190810190611985565b610540565b005b6101e460048036036101df91908101906119c6565b61060e565b6040516101f19190611dca565b60405180910390f35b610214600480360361020f91908101906118c9565b610653565b005b61021e61070e565b005b61023a600480360361023591908101906118c9565b6107f4565b6040516102479190611d4b565b60405180910390f35b61026a600480360361026591908101906118a0565b610814565b005b61027461094a565b6040516102819190611dca565b60405180910390f35b610292610950565b60405161029f9190611dca565b60405180910390f35b6102c260048036036102bd91908101906118f2565b610956565b005b6102de60048036036102d99190810190611a5b565b6109fe565b005b6102fa60048036036102f59190810190611985565b610b15565b6040516103079190611d88565b60405180910390f35b61032a60048036036103259190810190611985565b610bd5565b005b610334610ca3565b6040516103419190611d4b565b60405180910390f35b610364600480360361035f9190810190611a32565b610cb6565b6040516103719190611d66565b60405180910390f35b610382610d6f565b60405161038f9190611dca565b60405180910390f35b6103b260048036036103ad9190810190611a32565b610d75565b6040516103bf9190611d66565b60405180910390f35b6103e260048036036103dd91908101906118a0565b610e2e565b005b6103fe60048036036103f991908101906118a0565b610f67565b60405161040b9190611d4b565b60405180910390f35b61042e600480360361042991908101906119c6565b610f87565b60405161043b9190611d29565b60405180910390f35b61045e600480360361045991908101906118a0565b61101a565b60405161046b9190611d4b565b60405180910390f35b61048e600480360361048991908101906118a0565b61103a565b005b610498611124565b6040516104a59190611d0e565b60405180910390f35b6104c860048036036104c391908101906118c9565b611149565b6040516104d59190611d4b565b60405180910390f35b6104e6611169565b6040516104f39190611d4b565b60405180910390f35b610504611587565b005b61050e61166f565b60405161051b9190611d4b565b60405180910390f35b61053e600480360361053991908101906118a0565b611682565b005b600260003373ffffffffffffffffffffffffffffffffffffffff1673ffffffffffffffffffffffffffffffffffffffff16815260200190815260200160002060009054906101000a900460ff166105cc576040517f08c379a00000000000000000000000000000000000000000000000000000000081526004016105c390611daa565b60405180910390fd5b6003819080600181540180825580915050906001820390600052602060002001600090919290919091509080519060200190610609929190611768565b505050565b60006009836040516106209190611ce0565b90815260200160405180910390208260405161063c9190611ce0565b908152602001604051809103902054905092915050565b600160003373ffffffffffffffffffffffffffffffffffffffff1673ffffffffffffffffffffffffffffffffffffffff16815260200190815260200160002060009054906101000a900460ff166106df576040517f08c379a00000000000000000000000000000000000000000000000000000000081526004016106d690611daa565b60405180910390fd5b60016006600083815260200190815260200160002060006101000a81548160ff02191690831515021790555050565b6000809054906101000a900473ffffffffffffffffffffffffffffffffffffffff1673ffffffffffffffffffffffffffffffffffffffff163373ffffffffffffffffffffffffffffffffffffffff161461079d576040517f08c379a000000000000000000000000000000000000000000000000000000000815260040161079490611daa565b60405180910390fd5b600d60009054906101000a900460ff16156107b757600080fd5b600d60019054906101000a900460ff166107d057600080fd5b42600c819055506000600d60016101000a81548160ff021916908315150217905550565b60056020528060005260406000206000915054906101000a900460ff1681565b600260003373ffffffffffffffffffffffffffffffffffffffff1673ffffffffffffffffffffffffffffffffffffffff16815260200190815260200160002060009054906101000a900460ff166108a0576040517f08c379a000000000000000000000000000000000000000000000000000000000815260040161089790611daa565b60405180910390fd5b6000600160008373ffffffffffffffffffffffffffffffffffffffff1673ffffffffffffffffffffffffffffffffffffffff16815260200190815260200160002060006101000a81548160ff021916908315150217905550600160008273ffffffffffffffffffffffffffffffffffffffff1673ffffffffffffffffffffffffffffffffffffffff16815260200190815260200160002060006101000a81549060ff021916905550565b600c5481565b60075481565b6008836040516109669190611ce0565b9081526020016040518091039020826040516109829190611ce0565b908152602001604051809103902081908060018154018082558091505090600182039060005260206000200160009091929091909150555060076000815480929190600101919050555060016005600086815260200190815260200160002060006101000a81548160ff02191690831515021790555050505050565b6000809054906101000a900473ffffffffffffffffffffffffffffffffffffffff1673ffffffffffffffffffffffffffffffffffffffff163373ffffffffffffffffffffffffffffffffffffffff1614610a8d576040517f08c379a0000000000000000000000000000000000000000000000000000000008152600401610a8490611daa565b60405180910390fd5b600d60009054906101000a900460ff1615610aa757600080fd5b600d60019054906101000a900460ff1615610ac157600080fd5b42821015610ace57600080fd5b42811015610adb57600080fd5b81811015610ae857600080fd5b81600b8190555080600c819055506001600d60016101000a81548160ff0219169083151502179055505050565b6060600a82604051610b279190611ce0565b90815260200160405180910390208054600181600116156101000203166002900480601f016020809104026020016040519081016040528092919081815260200182805460018160011615610100020316600290048015610bc95780601f10610b9e57610100808354040283529160200191610bc9565b820191906000526020600020905b815481529060010190602001808311610bac57829003601f168201915b50505050509050919050565b600260003373ffffffffffffffffffffffffffffffffffffffff1673ffffffffffffffffffffffffffffffffffffffff16815260200190815260200160002060009054906101000a900460ff16610c61576040517f08c379a0000000000000000000000000000000000000000000000000000000008152600401610c5890611daa565b60405180910390fd5b6004819080600181540180825580915050906001820390600052602060002001600090919290919091509080519060200190610c9e929190611768565b505050565b600d60009054906101000a900460ff1681565b60048181548110610cc357fe5b906000526020600020016000915090508054600181600116156101000203166002900480601f016020809104026020016040519081016040528092919081815260200182805460018160011615610100020316600290048015610d675780601f10610d3c57610100808354040283529160200191610d67565b820191906000526020600020905b815481529060010190602001808311610d4a57829003601f168201915b505050505081565b600b5481565b60038181548110610d8257fe5b906000526020600020016000915090508054600181600116156101000203166002900480601f016020809104026020016040519081016040528092919081815260200182805460018160011615610100020316600290048015610e265780601f10610dfb57610100808354040283529160200191610e26565b820191906000526020600020905b815481529060010190602001808311610e0957829003601f168201915b505050505081565b6000809054906101000a900473ffffffffffffffffffffffffffffffffffffffff1673ffffffffffffffffffffffffffffffffffffffff163373ffffffffffffffffffffffffffffffffffffffff1614610ebd576040517f08c379a0000000000000000000000000000000000000000000000000000000008152600401610eb490611daa565b60405180910390fd5b6000600260008373ffffffffffffffffffffffffffffffffffffffff1673ffffffffffffffffffffffffffffffffffffffff16815260200190815260200160002060006101000a81548160ff021916908315150217905550600260008273ffffffffffffffffffffffffffffffffffffffff1673ffffffffffffffffffffffffffffffffffffffff16815260200190815260200160002060006101000a81549060ff021916905550565b60026020528060005260406000206000915054906101000a900460ff1681565b6060600883604051610f999190611ce0565b908152602001604051809103902082604051610fb59190611ce0565b908152602001604051809103902080548060200260200160405190810160405280929190818152602001828054801561100d57602002820191906000526020600020905b815481526020019060010190808311610ff9575b5050505050905092915050565b60016020528060005260406000206000915054906101000a900460ff1681565b6000809054906101000a900473ffffffffffffffffffffffffffffffffffffffff1673ffffffffffffffffffffffffffffffffffffffff163373ffffffffffffffffffffffffffffffffffffffff16146110c9576040517f08c379a00000000000000000000000000000000000000000000000000000000081526004016110c090611daa565b60405180910390fd5b6001600260008373ffffffffffffffffffffffffffffffffffffffff1673ffffffffffffffffffffffffffffffffffffffff16815260200190815260200160002060006101000a81548160ff02191690831515021790555050565b6000809054906101000a900473ffffffffffffffffffffffffffffffffffffffff1681565b60066020528060005260406000206000915054906101000a900460ff1681565b60008060009054906101000a900473ffffffffffffffffffffffffffffffffffffffff1673ffffffffffffffffffffffffffffffffffffffff163373ffffffffffffffffffffffffffffffffffffffff16146111fa576040517f08c379a00000000000000000000000000000000000000000000000000000000081526004016111f190611daa565b60405180910390fd5b606060008090505b60038054905081101561157e57600460008154811061121d57fe5b906000526020600020018054600181600116156101000203166002900480601f0160208091040260200160405190810160405280929190818152602001828054600181600116156101000203166002900480156112bb5780601f10611290576101008083540402835291602001916112bb565b820191906000526020600020905b81548152906001019060200180831161129e57829003601f168201915b5050505050915060008090505b600480549050811015611527576008600383815481106112e457fe5b906000526020600020016040516112fb9190611cf7565b90815260200160405180910390206004828154811061131657fe5b9060005260206000200160405161132d9190611cf7565b90815260200160405180910390208054905060096003848154811061134e57fe5b906000526020600020016040516113659190611cf7565b90815260200160405180910390206004838154811061138057fe5b906000526020600020016040516113979190611cf7565b9081526020016040518091039020819055506009600383815481106113b857fe5b906000526020600020016040516113cf9190611cf7565b9081526020016040518091039020836040516113eb9190611ce0565b90815260200160405180910390205460096003848154811061140957fe5b906000526020600020016040516114209190611cf7565b90815260200160405180910390206004838154811061143b57fe5b906000526020600020016040516114529190611cf7565b908152602001604051809103902054111561151a576004818154811061147457fe5b906000526020600020018054600181600116156101000203166002900480601f0160208091040260200160405190810160405280929190818152602001828054600181600116156101000203166002900480156115125780601f106114e757610100808354040283529160200191611512565b820191906000526020600020905b8154815290600101906020018083116114f557829003601f168201915b505050505092505b80806001019150506112c8565b5081600a6003838154811061153857fe5b9060005260206000200160405161154f9190611cf7565b90815260200160405180910390209080519060200190611570929190611768565b508080600101915050611202565b50600191505090565b6000809054906101000a900473ffffffffffffffffffffffffffffffffffffffff1673ffffffffffffffffffffffffffffffffffffffff163373ffffffffffffffffffffffffffffffffffffffff1614611616576040517f08c379a000000000000000000000000000000000000000000000000000000000815260040161160d90611daa565b60405180910390fd5b600d60009054906101000a900460ff161561163057600080fd5b42600c819055506001600d60006101000a81548160ff0219169083151502179055506000600d60016101000a81548160ff021916908315150217905550565b600d60019054906101000a900460ff1681565b600260003373ffffffffffffffffffffffffffffffffffffffff1673ffffffffffffffffffffffffffffffffffffffff16815260200190815260200160002060009054906101000a900460ff1661170e576040517f08c379a000000000000000000000000000000000000000000000000000000000815260040161170590611daa565b60405180910390fd5b60018060008373ffffffffffffffffffffffffffffffffffffffff1673ffffffffffffffffffffffffffffffffffffffff16815260200190815260200160002060006101000a81548160ff02191690831515021790555050565b828054600181600116156101000203166002900490600052602060002090601f016020900481019282601f106117a957805160ff19168380011785556117d7565b828001600101855582156117d7579182015b828111156117d65782518255916020019190600101906117bb565b5b5090506117e491906117e8565b5090565b61180a91905b808211156118065760008160009055506001016117ee565b5090565b90565b60008135905061181c81611f5d565b92915050565b60008135905061183181611f74565b92915050565b600082601f83011261184857600080fd5b813561185b61185682611e12565b611de5565b9150808252602083016020830185838301111561187757600080fd5b611882838284611f0a565b50505092915050565b60008135905061189a81611f8b565b92915050565b6000602082840312156118b257600080fd5b60006118c08482850161180d565b91505092915050565b6000602082840312156118db57600080fd5b60006118e984828501611822565b91505092915050565b6000806000806080858703121561190857600080fd5b600061191687828801611822565b945050602085013567ffffffffffffffff81111561193357600080fd5b61193f87828801611837565b935050604085013567ffffffffffffffff81111561195c57600080fd5b61196887828801611837565b925050606061197987828801611822565b91505092959194509250565b60006020828403121561199757600080fd5b600082013567ffffffffffffffff8111156119b157600080fd5b6119bd84828501611837565b91505092915050565b600080604083850312156119d957600080fd5b600083013567ffffffffffffffff8111156119f357600080fd5b6119ff85828601611837565b925050602083013567ffffffffffffffff811115611a1c57600080fd5b611a2885828601611837565b9150509250929050565b600060208284031215611a4457600080fd5b6000611a528482850161188b565b91505092915050565b60008060408385031215611a6e57600080fd5b6000611a7c8582860161188b565b9250506020611a8d8582860161188b565b9150509250929050565b6000611aa38383611b2b565b60208301905092915050565b611ab881611eb8565b82525050565b6000611ac982611e5d565b611ad38185611e8b565b9350611ade83611e3e565b8060005b83811015611b0f578151611af68882611a97565b9750611b0183611e7e565b925050600181019050611ae2565b5085935050505092915050565b611b2581611eca565b82525050565b611b3481611ed6565b82525050565b6000611b4582611e73565b611b4f8185611e9c565b9350611b5f818560208601611f19565b611b6881611f4c565b840191505092915050565b6000611b7e82611e73565b611b888185611ead565b9350611b98818560208601611f19565b80840191505092915050565b6000611baf82611e68565b611bb98185611e9c565b9350611bc9818560208601611f19565b611bd281611f4c565b840191505092915050565b600081546001811660008114611bfa5760018114611c1f57611c63565b607f6002830416611c0b8187611ead565b955060ff1983168652808601935050611c63565b60028204611c2d8187611ead565b9550611c3885611e4b565b60005b82811015611c5a57815481890152600182019150602081019050611c3b565b82880195505050505b505092915050565b6000611c78603283611e9c565b91507f596f7520617265206e6f7420417574686f72697a656420746f206d616b65207460008301527f6869732066756e6374696f6e2043616c6c2e00000000000000000000000000006020830152604082019050919050565b611cda81611f00565b82525050565b6000611cec8284611b73565b915081905092915050565b6000611d038284611bdd565b915081905092915050565b6000602082019050611d236000830184611aaf565b92915050565b60006020820190508181036000830152611d438184611abe565b905092915050565b6000602082019050611d606000830184611b1c565b92915050565b60006020820190508181036000830152611d808184611ba4565b905092915050565b60006020820190508181036000830152611da28184611b3a565b905092915050565b60006020820190508181036000830152611dc381611c6b565b9050919050565b6000602082019050611ddf6000830184611cd1565b92915050565b6000604051905081810181811067ffffffffffffffff82111715611e0857600080fd5b8060405250919050565b600067ffffffffffffffff821115611e2957600080fd5b601f19601f8301169050602081019050919050565b6000602082019050919050565b60008160005260206000209050919050565b600081519050919050565b600081519050919050565b600081519050919050565b6000602082019050919050565b600082825260208201905092915050565b600082825260208201905092915050565b600081905092915050565b6000611ec382611ee0565b9050919050565b60008115159050919050565b6000819050919050565b600073ffffffffffffffffffffffffffffffffffffffff82169050919050565b6000819050919050565b82818337600083830152505050565b60005b83811015611f37578082015181840152602081019050611f1c565b83811115611f46576000848401525b50505050565b6000601f19601f8301169050919050565b611f6681611eb8565b8114611f7157600080fd5b50565b611f7d81611ed6565b8114611f8857600080fd5b50565b611f9481611f00565b8114611f9f57600080fd5b5056fea265627a7a72305820eba093d09d91c3c6de7f477361f744d0d511341e43a1e919fc6309a37405af5d6c6578706572696d656e74616cf50037",
  "source": "pragma solidity ^0.5.0;\npragma experimental ABIEncoderV2;\n\n// import \"./VoteVault.sol\";\n\ncontract Election {\n \n    address public EC_Head;\n    mapping(address => bool) public kyc_verifiers;\n    mapping(address => bool) public ec_officials;\n\n    // event Approval(address indexed tokenOwner, address indexed spender, uint tokens);\n    // event Transfer(address indexed from, address indexed to, uint tokens);\n\n    string[] public  constituencies;\n    string[] public parties;\n    // mapping(uint8 => string) public partyName;\n    mapping(bytes32 => bool) public hasVoted;\n    mapping(bytes32 => bool) public kycDone;\n    // mapping(uint => bool) public kycDone;\n    uint public voterCount;\n    mapping(string => mapping (string => bytes32[]))  vote_hashes;\n    mapping(string => mapping (string => uint))  result;\n    mapping(string => string)  winner;\n\n    // Vault opens/opened at this time\n    uint256 public beginTime;\n    \n    // Vault closes/Closed at this times\n    uint256 public endTime;\n    \n    // flag to track whether vault closed permanently or not\n    bool public vaultSealed;\n    \n    // Checks whether the vault is opened or not\n    bool public isVaultOpened;\n\n\n    using SafeMath for uint;\n    \n    modifier onlyEcHead {\n        require((msg.sender == EC_Head), \"You are not Authorized to make this function Call.\");\n        _;\n    }\n    modifier onlyEcOfficial {\n        require((ec_officials[msg.sender]), \"You are not Authorized to make this function Call.\");\n        _;\n    }\n    modifier onlyKycVerifier {\n        require((kyc_verifiers[msg.sender]), \"You are not Authorized to make this function Call.\");\n        _;\n    }\n\n   constructor() public {  \n\t\n    EC_Head = msg.sender;\n    ec_officials[msg.sender] = true;\n    // will remove this when actual voting occurs\n    kyc_verifiers[msg.sender] = true;\n    voterCount = 0;\n\n    vaultSealed = false;\n    isVaultOpened = false;\n    }  \n\n    function addEcOfficial (address official) public onlyEcHead {\n        ec_officials[official] = true;\n    }\n    function removeEcOfficial(address official) public onlyEcHead {\n        ec_officials[official] = false;\n        delete ec_officials[official];\n    }\n    function addKycVerifier (address verifier) public onlyEcOfficial {\n        kyc_verifiers[verifier] = true;\n    }\n    function removeKycVerifier(address verifier) public onlyEcOfficial {\n        kyc_verifiers[verifier] = false;\n        delete kyc_verifiers[verifier];\n    }\n    function addParty (string memory party_name) public onlyEcOfficial {\n        // require(!isVaultOpened);\n        // require(beginTime >= uint256(now), \"Cannot add a party after the elections have started.\");\n        parties.push(party_name);\n    }\n    function addConstituency (string memory constituency) public onlyEcOfficial{\n        // require(!isVaultOpened);\n        // require(beginTime >= uint256(now), \"Cannot add a constituency after the elections have started.\");\n        constituencies.push(constituency);\n    }\n\n    function kycVerify(bytes32  uuid_hash) public onlyKycVerifier {\n        kycDone[uuid_hash] = true;\n    }\n\n    function openVault(uint256 _startTime, uint256 _closureTime) public onlyEcHead {\n        require(!vaultSealed);\n        require(!isVaultOpened);\n        require(_startTime >= uint256(now)); \n        require(_closureTime >= uint256(now)); \n        require(_closureTime >= _startTime);    \n        \n        beginTime = _startTime; \n        endTime = _closureTime;\n        isVaultOpened = true; \n    }\n\n    function closeVault() public onlyEcHead {\n        // can use this function to end the voting process immediately in case of some emergency\n        // but this should not be misused by the ec head to stop it anytime and calculate the votes.\n        // can include a multisig over here\n        require(!vaultSealed);\n        require(isVaultOpened); \n        \n        endTime = uint256(now);\n        isVaultOpened = false; \n    }\n\n    function sealVault() public onlyEcHead {\n        require(!vaultSealed); \n        endTime = uint256(now);\n        vaultSealed = true; \n        isVaultOpened = false; \n    }\n\n    function registerVote(bytes32 uuid_hash, string memory constituency, string memory party,  bytes32 vote_hash) public {\n        // require(!vaultSealed);\n        // require(isVaultOpened);\n        // require(beginTime <= uint256(now), \"The elections haven't started yet\"); \n        // require(endTime >= uint256(now), \"The election period is over\");\n        // require(kycDone[uuid_hash], \"KYC process is not complete for this voter\");\n        // require(!(hasVoted[uuid_hash]), \"The voter has already voted. Aborting.\");\n\n        vote_hashes[constituency][party].push(vote_hash);\n        voterCount++;\n        hasVoted[uuid_hash] = true;\n    }\n\n    function calculateVotes() public  onlyEcHead returns (bool) {\n        // require(endTime <= uint256(now), \"The election period is not over. Can't calculate the votes before election ends.\");\n        string memory _winner;\n\n        for (uint i = 0; i < constituencies.length; i++)\n        {\n            _winner = parties[0];\n            for (uint j = 0; j < parties.length; j++){\n                 result[constituencies[i]][parties[j]] = vote_hashes[constituencies[i]][parties[j]].length;\n                if ( result[constituencies[i]][parties[j]] > result[constituencies[i]][_winner]){\n                    _winner = parties[j];\n                }\n            }\n             winner[constituencies[i]] = _winner;\n        }\n        return true;\n    }\n\n    function getWinner(string memory constituency) public view returns (string memory) {\n        return  winner[constituency];\n    }\n    function getVoteHashes(string memory constituency, string memory party) public view returns (bytes32[] memory) {\n        return  vote_hashes[constituency][party];\n    }\n    function getVoteCount(string memory constituency, string memory party) public view returns (uint) {\n        return  result[constituency][party];\n    }\n}\n\nlibrary SafeMath { \n    function sub(uint256 a, uint256 b) internal pure returns (uint256) {\n      assert(b <= a);\n      return a - b;\n    }\n    \n    function add(uint256 a, uint256 b) internal pure returns (uint256) {\n      uint256 c = a + b;\n      assert(c >= a);\n      return c;\n    }\n\n//     function substring(string str, uint startIndex, uint endIndex) constant returns (string) {\n//     bytes memory strBytes = bytes(str);\n//     bytes memory result = new bytes(endIndex-startIndex);\n//     for(uint i = startIndex; i < endIndex; i++) {\n//         result[i-startIndex] = strBytes[i];\n//     }\n//     return string(result);\n// }\n\n// for removing something from an array. instead of shifting, just replace it with last element and \n// decrease the length by 1\n// for (uint i = 0; i < vaultOwners.length; i++) {\n//             if (vaultOwners[i] == _owner) {\n//                 vaultOwners[i] = vaultOwners[vaultOwners.length - 1];\n//                 vaultOwners.length -= 1;\n//                 break;\n//             }\n//         } \n}\n",
  "sourcePath": "/home/smit/my_space/Excalibur/Dapp/contracts/Election.sol",
  "compiler": {
    "name": "solc",
    "version": "0.5.8+commit.23d335f2.Emscripten.clang"
  },
  "schemaVersion": "3.0.10",
  "updatedAt": "2019-06-12T13:11:17.458Z",
  "devdoc": {
    "methods": {}
  },
  "userdoc": {
    "methods": {}
  }
}